S31508000000D80600200D020008131E0008EB1A000887
S31508000010C91C0008BB070008E52700080000000007
S31508000020000000000000000000000000B9200008E1
S31508000030BD07000800000000B7200008BB20000824
S3150800004027020008270200082702000827020008DE
S3150800005027020008270200082702000827020008CE
S3150800006027020008270200082702000827020008BE
S3150800007027020008270200082702000827020008AE
S31508000080270200082702000827020008270200089E
S31508000090270200082702000827020008270200088E
S315080000A02702000871210008270200082702000815
S315080000B0270200082702000827020008270200086E
S315080000C0270200082702000827020008270200085E
S315080000D0270200082702000827020008270200084E
S315080000E0270200082702000827020008270200083E
S315080000F0270200082702000827020008270200082E
S31508000100270200082702000827020008270200081D
S31508000110270200082702000827020008270200080D
S3150800012027020008270200082702000827020008FD
S3150800013027020008270200082702000827020008ED
S3150800014027020008270200082702000827020008DD
S3150800015027020008270200082702000827020008CD
S3150800016027020008270200082702000827020008BD
S3150800017027020008270200082702000800000000DE
S31508000180270200082702000827020008270200089D
S31508000190270200082702000827020008270200088D
S315080001A0270200082702000827020008270200087D
S315080001B0270200082702000827020008270200086D
S315080001C0270200082702000800000000270200088E
S315080001D0270200082702000827020008270200084D
S315080001E0270200082702000827020008270200083D
S315080001F02702000827020008DFF80CD000F05CFA96
S3150800020000480047E92A0008D80600200648804723
S3150800021006480047FEE7FEE7FEE7FEE7FEE7FEE7DD
S31508000220FEE7FEE7FEE7FEE74D210008F9010008B4
S315080002302DE9F05F0546002092469B46884606460D
S31508000240814640241BE0284641464746224600F0A0
S315080002506AF853465A46C01A914110D311461846B1
S31508000260224600F051F82D1A67EB01084F46224640
S315080002700120002100F048F817EB00094E41201E26
S31508000280A4F10104DFDC484631462A464346BDE868
S31508000290F09FD2B201E000F8012B491EFBD270474D
S315080002A00022F6E710B513460A4604461946FFF734
S315080002B0F0FF204610BD421E12F8013F002BFBD16D
S315080002C011F8013B02F8013B002BF9D17047421C9B
S315080002D010F8011B0029FBD1801A704730B50B4670
S315080002E0014600202022012409E021FA02F59D4258
S315080002F005D303FA02F5491B04FA02F52844151E2C
S31508000300A2F10102F1DC30BD202A04DB203A00FA12
S3150800031002F1002070479140C2F1200320FA03F34E
S31508000320194390407047202A04DB203A21FA02F04C
S315080003300021704721FA02F3D040C2F12002914011
S315080003400843194670472DE9FE4F804681EA0300A7
S31508000350C00F0C46009021F0004123F00045B8EB91
S315080003600200A94105D24046214690461C460B4646
S31508000370024623F00040104347D0270DC7F30A0072
S31508000380C3F30A510290401A019040286BDAC3F36E
S31508000390130040F4801B0098924620B10023D2EB4C
S315080003A0030A63EB0B0B01985946C0F1400250460D
S315080003B0FFF7AAFF06460D4650465946019A00F031
S315080003C08DF910EB08006141002487EA115284EA8E
S315080003D0E7731A4340D0009A62B3019A012A4FEA9A
S315080003E0075215DC001B61EB02014FF0004202EADE
S315080003F00752CDE90042001C41F5801132462B46D2
S3150800040000F08DF903B0BDE8F08F40462146F9E7C4
S31508000410001B61EB0201001C41F5801300185B41CB
S315080004202018A2F5001747EB030140EAD570B61964
S315080004306D4111E06D084FEA360645EAC0754FEA88
S315080004400752001B61EB0201001C41F580114908A7
S315080004504FEA30000019514132462B4603B0BDE839
S31508000460F04F00F04DB90098012240000023D0EB70
S31508000470020263EBE073009821464FEAE074B8EB9A
S31508000480000061EB0401E9E783F000435BE781F0D4
S31508000490004158E72DE9FE4F81EA030404F00044C1
S315080004A021F0004100944FF0000B23F0004350EA7E
S315080004B001045ED052EA03045BD0C3F30A54C1F3C5
S315080004C00A552C44A4F2F3340194A0FB0254C1F358
S315080004D0130141F48011C3F3130343F4801301FBA2
S315080004E0024400FB034E840A970A44EA815447EA09
S315080004F08357A4FB076802958D0A05FB07854FEA13
S31508000500932C04FB0C542705029D4FEA065847EA2C
S315080005101637B5EB08056EEB070C870E920E47EA01
S31508000520811742EA8312A7FB0201B6EB0B0164EBC3
S3150800053000042B0D43EA0C335E1844EB1C50DA46D4
S315080005405146E7FB0201C5F313044FEA0B3343EAAE
S3150800055014534FEA0432019C43EA0603A4F10C043F
S315080005600294009CCDE900B400F0D9F803B0BDE8C8
S31508000570F08F00200146F9E72DE9F04D81EA0304E2
S3150800058004F0004B21F0004514464FF0000A23F012
S31508000590004150EA050220D054EA01021DD0C5F3F5
S315080005A00A570246C5F31303C1F31300C1F30A56EB
S315080005B040F4801543F48013A7EB0608101BD646B3
S315080005C008F2FD3873EB050002D308F1010801E0D3
S315080005D092185B41B8F1000F03DA00200146BDE826
S315080005E0F08D00204FF48011064684460EE0171B56
S315080005F073EB050705D3121B63EB050306434CEAA9
S31508000600010C49084FEA300092185B4150EA01078D
S31508000610EDD152EA030012D082EA040083EA05010A
S31508000620084305D0101BAB4106D20122002306E081
S3150800063000224FF0004302E06FF0010253101AEB5C
S3150800064006004CEB085110EB0A0041EB0B01BDE824
S31508000650F04D00F055B8C1F30A52C1F3130140F248
S31508000660FF3341F480119A4202DA002001467047AE
S3150800067040F233439A42A2F2334202DC5242FFF777
S3150800068052BEFFF741BE000030B5041E71F10004EA
S3150800069004DB4FF00044404264EB0101141E73F181
S315080006A0000405DB1C464FF00043524263EB04038B
S315080006B0994208BF904230BD064C074D06E0E068F7
S315080006C040F0010394E8070098471034AC42F6D38B
S315080006D0FFF796FDB0360008D0360008202A06DB5C
S315080006E0CB17203A41FA02F043EAE07306E041FAF2
S315080006F002F3D040C2F120029140084319467047E0
S3150800070010B5141E73F1000408DA401C41F100010B
S3150800071092185B411A4301D120F0010010BD2DE962
S31508000720F04D92469B4611B1B1FA81F202E0B0FA59
S3150800073080F220329046FFF7E7FD04460F4640EA6E
S315080007400A0041EA0B0153465A46084313D011469C
S3150800075053EA010019D0C8F140025046FFF7E3FDFD
S3150800076005460E46504659464246FFF7CDFD084314
S3150800077005D0012004E020463946BDE8F08D00206A
S31508000780054346EAE0762C4337430A986305E40AAC
S31508000790A0EB08000022FD0A44EA47540A3002D5B5
S315080007A000200146E9E7010510196941DDE9084518
S315080007B000196941BDE8F04DA2E7FEE770477047AA
S315080007C0054880ED010A054880ED010A044880EDD8
S315080007D0010A044801F0FBBBF801002024020020AE
S315080007E09402002068020020B0B5044600F0E2F842
S315080007F005468B48611C007818BF044400F0DAF8F7
S31508000800401BA042FAD3B0BD2DE9F84F5C4A4FF021
S315080008100A094FF0000B4FF0010A4FF0000E904204
S31508000820584A08BF4FF0090902444FEAB223092B78
S3150800083038BF4FEAB2290022102A00F09F800AFA30
S3150800084002F60B68334200F0938003234C6803FAE0
S315080008500EF36FEA030C04F00303A3F10108B8F1E1
S31508000860010F12D8876807EA0C08CF6807FA0EF74F
S3150800087047EA08078760C4F3001707FA02F84768CB
S31508000880B74347EA0807476003E0032B01D1032370
S315080008901DE0C7688D6807EA0C0705FA0EF53D43A3
S315080008A0C560022B13D16FF003050BF01C030F2450
S315080008B005EA52059C4005442F6A27EA04040F6995
S315080008C007FA03F323432B624C6804F00303056815
S315080008D003FA0EF305EA0C052B43036014F4403FB4
S315080008E046D02B4C284F22F00305BC463D442368CE
S315080008F043F48043236023680F2403F48043009362
S31508000900009F0BF00C03234F9C4009FA03F3B846EB
S31508000910EF5927EA0404234345F80830DCF8083081
S315080009204D6843EA0604EF0258BF23EA0604174B4C
S31508000930CCF80840AF0298461B6843EA060458BF3D
S3150800094023EA0604C8F80040AF03DCF8043043EA9B
S31508000950060458BF23EA0604CCF80440ED03DCF885
S31508000960003043EA060458BF23EA0604CCF80040E0
S315080009700BF1040B0EF1020E01325DE7BDE8F88FAC
S31508000980002402400000FEBF003C01400C3C014030
S315080009904438024008FCFFFF426902EA010391431A
S315080009A041EA034181617047002A08BF0904816151
S315080009B07047000005480068704700BF184803499B
S315080009C000780A6810440860704700BFD00200200B
S315080009D080B5032000F074F8002000F005F800F058
S315080009E023F8002080BD000070B50D4E04464FF474
S315080009F07A713078B1FBF0F00A490968B1FBF0F07A
S31508000A0000F04EFD01250F2C08D838B94FF0FF30FD
S31508000A1021460022002500F02DF87460284670BD96
S31508000A20200000202800002082B04048016841F0DC
S31508000A3080510160016801F0805101910199416876
S31508000A4041F480414160406800F48040009000987D
S31508000A5002B07047002809D4734601F03CFA9E4656
S31508000A60034A42EAD00020F003000160704700BF45
S31508000A7000E100E0F0B5184B4FF0FF361C68C4F3F0
S31508000A800224E51E84F0070438BF002506FA05F798
S31508000A90BA43042C28BF042406FA04F4A14300F040
S31508000AA00F04A940043C1143044A234409010244A3
S31508000AB0002848BF03F10C021170F0BD00E400E005
S31508000AC005494FF6FF030A681A4060F30A220348ED
S31508000AD010430860704700BF0CED00E00000FA05FF
S31508000AE0BCB51248D34D01F0B2F940F4803001F09C
S31508000AF0F9F904466868C00305D4FFF75BFF01F0FF
S31508000B002AFAF7D90DE0286840F4003001F0EAF92E
S31508000B1004466868800306D4FFF74CFF01F01BFA09
S31508000B20F7D90320BCBD0020BCBD00BF4038024039
S31508000B302DE9FC47D0F800A00446BD4E5FEACA700E
S31508000B4002D14FF000090BE0B06820F40000B06055
S31508000B50606BB1680143B0FA80F0B1604FEA501992
S31508000B605FEA0A3002D44FF0000810E0E06BD6F8CE
S31508000B708C1021F440110143C6F88C10B0F5801F83
S31508000B80B0FA80F008BF4FF001094FEA50185FEA43
S31508000B90CA2010D5206CD6F88C1021F440010143E8
S31508000BA0C6F88C10002808BF4FF00108B0F5800F72
S31508000BB008BF4FF001095FEA8A60574645D5306C91
S31508000BC09C4F40F080503064306C00F080500190AB
S31508000BD00198386840F480703860FFF7EBFE0546E8
S31508000BE03868C00505D4FFF7E5FE401B6428F7D929
S31508000BF0E1E1306F10F4407014D0216B01F44071BC
S31508000C0088420FD0306F316F41F48031316720F45C
S31508000C104070316F21F4803131673067306FC0071B
S31508000C2040F0CF812768206B8349B268014000F401
S31508000C30407322F4F8126FF31F30B3F5407F08BFF4
S31508000C400A43B260316F08433067F8060BD5D6F809
S31508000C508C0020F08070C6F88C00A06BD6F88C103B
S31508000C600843C6F88C00780406D5606ED6F890104E
S31508000C7021F4403101F004F9380406D5A06ED6F8FF
S31508000C80901021F4402101F0FBF8F80306D5E06E38
S31508000C90D6F8901021F4401101F0F2F8B80306D501
S31508000CA0206FD6F8901021F4400101F0E9F8780693
S31508000CB006D5606CD6F8901021F0030101F0E0F833
S31508000CC0380606D5A06CD6F8901021F00C0101F074
S31508000CD0D7F8F80506D5E06CD6F8901021F0300163
S31508000CE001F0CEF8B80506D5206DD6F8901021F09B
S31508000CF0C00101F0C5F8780506D5606DD6F89010E4
S31508000D0021F4407101F0BCF8380506D5A06DD6F877
S31508000D10901021F4406101F0B3F8F80406D5E06DAF
S31508000D20D6F8901021F4405101F0AAF8B80406D577
S31508000D30206ED6F8901021F4404101F0A1F878020F
S31508000D4006D5A06FD6F8901021F0806101F098F8CA
S31508000D50B8020CD5E06FD6F8901021F00061014377
S31508000D60C6F89010B0F1006F08BF4FF0010878037D
S31508000D7006D5606FD6F8901021F0407101F080F822
S31508000D80380207D5D4F88000D6F8901021F08051A3
S31508000D9001F076F8780107D5D4F88400D6F89010D3
S31508000DA021F0005101F06CF8380108D5D4F8880014
S31508000DB0D6F88C1021F000710843C6F88C000AF0AA
S31508000DC08070F90008D5D4F88C10D6F88C2022F05B
S31508000DD080621143C6F88C10D8B9B9F1000F08BF64
S31508000DE017F0007015D117F0080008BFB8F1000F0A
S31508000DF000F0E480306820F0805001F079F805466C
S31508000E003068800071D5FFF7D5FD401B6428F7D9F7
S31508000E10D1E0306820F0806001F06AF80546306855
S31508000E2000010BD5FFF7C6FD401B6428F7D9C2E0C1
S31508000E300038024000700040FFFCFF0F2068C10721
S31508000E4010D0616B71B901F0E3F801F4403102F09A
S31508000E5070621144D4E9012341EA821141EA03711F
S31508000E60C6F88410010303D5E16BB1F5801F05D0E0
S31508000E70C10217D5216CB1F5800F13D101F0C8F85E
S31508000E80E368656A01F4403101F0ACF841EA0361B0
S31508000E90C6F88410D6F88C20691E22F01F0211436A
S31508000EA0C6F88C10C1010AD501F0B2F8236901F021
S31508000EB0706101F097F841EA0341C6F88410800191
S31508000EC003D5231D0FCB01F052F8306840F080603F
S31508000ED001F00EF80546306800013FF584AFFFF7CC
S31508000EE069FD401B6428F6D965E02068010301D531
S31508000EF0E16B19B1C1021ED5216CE1B9D6F888108B
S31508000F00D6F88820A56A01F4403102F0E04211447F
S31508000F10D4E9052341EA821141EA0361C6F888103B
S31508000F206FF0FF01D6F88C2001EB052122F4F85268
S31508000F301143C6F88C10810214D5E16FB1F1006F28
S31508000F4010D1D6F88810D6F88820236A01F0706187
S31508000F5002F0E0421144626941EA821141EA034122
S31508000F60C6F88810000718D5D6F88800D6F888106D
S31508000F70E269E36A00F0706001F44031084461698F
S31508000F8040EA811040EA0270C6F88800D6F88C005C
S31508000F9020F440301843C6F88C00306840F0805082
S31508000FA000F0A6FF04463068800007D4FFF702FD6C
S31508000FB0001B6528F7D30320BDE8FC870020BDE8A1
S31508000FC0FC87FFF7F7FC054641F28837306F800744
S31508000FD03FF528AEFFF7EEFC411B0320B942F5D9D1
S31508000FE0EAE700002DE9F041002856D03C4F0446B8
S31508000FF08846D7F8000400F00F00884202D200F0B5
S3150800100031FF4AD12068810711D5410703D5B96850
S3150800101041F4E051B960010703D5B96841F460416C
S31508001020B960A168BA6822F0F0021143B960C00736
S315080010302BD1D7F8000400F00F00404502D900F084
S3150800104011FF2AD12068410705D5E168BA6822F45C
S31508001050E0521143B960000706D52069B96821F442
S31508001060604141EAC000B86000F05AF8B9681D4A04
S31508001070C1F30311515CC840264908601A48006844
S31508001080FFF7B2FC0020BDE8F0816068022807D0AF
S31508001090012821D13968890305D40120BDE8F081EA
S315080010A039688901F9D5B96821F003010843B860A0
S315080010B0FFF780FC064641F288356068B96801F09A
S315080010C00C01B1EB800FB4D0FFF774FC801BA8426B
S315080010D0F3D90320BDE8F08139688907DDD5E2E751
S315080010E000380240783600082400002009480A49DA
S315080010F00A4A00680968C1F38221515CC8407047F2
S3150800110004480549054A00680968C1F34231515C3B
S31508001110C840704728000020083802408836000872
S3150800112010B5134C606800F00C00082804D0042899
S3150800113014BF1048104810BD2268206800234002DA
S3150800114002F03F020C485CBF42F20040C0F2F400D5
S315080011502168C1F38811A0FB0101FFF769F821682E
S315080011600222C1F3014102EB4101B0FBF1F010BDCF
S31508001170043802400024F40040787D012DE9FC4142
S31508001180002866D004460078C34EC0070BD0B06866
S3150800119000F00C00042840F093803068800302D5E4
S315080011A06068002855D02078800718D5B06810F0F8
S315080011B00C0F07D000F027FF40F0988070684002B7
S315080011C000F194803068800702D5E068012840D194
S315080011D02069316821F0F80141EAC00030602078C2
S315080011E0000739D42078400749D4A76977B300F0B7
S315080011F00AFF40F0A8807068012F2AD0E16900F440
S3150800120080028A4225D1216A00F03F028A4220D113
S3150800121047F6C071626A0140B1EB821F19D1A16A13
S315080012204FF6FF72C903914300F44032A1F58031AD
S315080012308A420ED1E16A00F07062B2EB016F08D102
S31508001240216B00F0E040B0EB017F02D10020BDE841
S31508001250FC810120BDE8FC81706F6169002962D0BC
S3150800126040F001007067FFF7A5FB0546706F800721
S31508001270B8D4FFF79FFB401B0228F7D9E4E0306C8F
S3150800128010F0805808D1306C40F080503064306CD3
S3150800129000F0805001900198804F3868C00538D416
S315080012A0386840F480703860FFF784FB0546386874
S315080012B0C0052ED4FFF77EFB401B6428F7D9C3E090
S315080012C000F0A1FE03D1706840023FF566AF606882
S315080012D0002800F09680B0F5A02F00F0A280B0F5A7
S315080012E0803F00F0A28000F075FEA1E03068E1685A
S315080012F0002945D040F0010000F0F7FD05463068AA
S3150800130080073FF565AFFFF755FB401B0228F6D966
S315080013109AE0A068002843D0052853D0012855D064
S3150800132000F01DFE55E020F001007067FFF742FB54
S315080013300546706F80077FF555AFFFF73BFB401BEF
S315080013400228F6D980E0306820F0807000F0CDFDE4
S315080013500546022F09D13068800178D5FFF72AFBA8
S31508001360411B03200229F6D971E7306880017FF511
S315080013706DAFFFF71FFB411B03200229F5D966E76E
S3150800138020F0010000F0B1FD0546306880077FF5C2
S3150800139026AFFFF70FFB411B03200229F5D956E7B5
S315080013A000F0DDFD3067FFF705FB054641F288379B
S315080013B0306F80071CD5FFF7FDFA411B0320B942A1
S315080013C0F6D944E7306F40F004003067306F40F0DC
S315080013D001003067FFF7EEFA054641F28837306FAD
S315080013E0800705D4FFF7E6FA401BB842F7D92BE089
S315080013F0B8F1000F7FF4F9AE306C20F080503064FD
S31508001400F3E600F0E7FD00F070FD0546306880035E
S315080014107FF5C9AEFFF7CEFA411B03206429F5D93B
S3150800142015E7306840F480203060306840F480303A
S3150800143000F05BFD0546306880033FF5B4AEFFF764
S31508001440B9FA401B6428F6D90320BDE8FC8104F1EB
S315080014501C05246B2FCD0843D90340EA82104FF6AA
S31508001460FF72914340EA0560A1F58031084340EADE
S3150800147004707060306840F0807000F036FD0446F5
S31508001480306880013FF5E2AEFFF794FA011B0320AE
S315080014900229F5D9DBE600BF00380240007000409B
S315080014A0411E0020B0EB116F01D001207047044A9D
S315080014B0F023516003490B70906007211160704753
S315080014C010E000E023ED00E0704770477047000029
S315080014D070B590F83C300222012B2CD080F83D20C4
S315080014E07B4C026842F4806655689368A64202BF40
S315080014F025F470054E6835430E6825F070053543AA
S315080015005560B2F1804F0BD06B4DAA421CBF6B4D94
S31508001510AA4205D06A4DAA421CBF6A4DAA420CD1FE
S3150800152023F08003896819439160002280F83C20E3
S31508001530012180F83D10104670BD634DAA42EFD0D8
S31508001540624DAA4218BFA242EAD0EEE758B110B5DA
S3150800155000F07FFD03D100F035FD00F007F800F03C
S31508001560A3FD00F0C8BC012070470000FEB5006866
S31508001570B0F1804F17D0F249884233D11A48002279
S31508001580416941F0010141614069002100F0010013
S31508001590019001981920FFF76DFA192006B0BDE8E9
S315080015A08040FFF757BA1048016941F0010101610F
S315080015B0016901F0010101910199016841F00101F8
S315080015C001600068002100F001000090CDE90311D8
S315080015D0022101200590CDE90101009801A90348DF
S315080015E0FFF712F906B080BD30380240000002400D
S315080015F090F83D1001291DD1022180F83D1001689F
S31508001600B1F1804F0BD02C4881421CBF2B48814238
S3150800161005D02B4881421CBF2A4881420CD18868D4
S315080016202C4A734600F011FD9E4618BFB2F5803F5E
S315080016300BD1704701207047C1488142EFD023483B
S315080016408142ECD022488142E9D000F00BBD00BFB0
S3150800165090F83D10012921D1022180F83D1001683A
S31508001660B1F1804FC86840F00100C8600BD012483D
S3150800167081421CBF1148814205D0114881421CBFD6
S31508001680104881420CD18868124A734600F0DDFC86
S315080016909E4618BFB2F5803F0BD1704701207047B0
S315080016A0A7488142EFD009488142ECD008488142D8
S315080016B0E9D000F0D7BC00BF000400400008004095
S315080016C0000C0040001800400000014000400140A6
S315080016D0000401400700010010B500F0B0FC1BD063
S315080016E084F83D00012084F83C00284B2068826875
S315080016F01A4082600A682AB1102A03D0202A18BF25
S31508001700302A0AD1816821F07001114341F007019E
S315080017108160002000F0B6FC10BD402A10D0502A87
S3150800172017D0602A1ED0B2F5005F27D0B2F5805FC9
S31508001730EFD0702A27D100F038FC41F07701E7E7AF
S3150800174000F0A7FC2068816841F0470121F03001CC
S31508001750DEE700F09EFC2068816841F0570121F021
S315080017602001D5E74B68CA68194600F0CCFD206809
S31508001770816841F0670121F01001C9E700F015FC06
S3150800178041F48041C4E70120C4E700BF8800FEFF9A
S31508001790704710B5044600680169890712D5C16803
S315080017A089070FD56FF00201016101212177806950
S315080017B0800702D000F05CFC01E000F01AFC002073
S315080017C0207720680169490713D5C168490710D5EC
S315080017D06FF00401016102212177806910F4407FCE
S315080017E002D000F045FC01E000F003FC0020207761
S315080017F020680169090712D5C16809070FD56FF076
S315080018000801016104212177C069800702D000F030
S315080018102FFC01E000F0EDFB00202077206801692D
S31508001820C90613D5C168C90610D56FF01001016144
S3150800183008212177C06910F4407F02D000F018FC17
S3150800184001E000F0D6FB0020207720680169C9076F
S3150800185009D0C168C90706D06FF0010101612046A9
S3150800186000F03AF820680169090609D5C168090631
S3150800187006D56FF0800101612046FFF726FE206835
S315080018800169C90509D5C168090606D56FF48071CD
S3150800189001612046FFF718FE20680169490609D547
S315080018A0C168490606D56FF040010161204600F07F
S315080018B063F820680169890602D5C168890600D4DB
S315080018C010BD6FF0200101612046BDE81040FFF70A
S315080018D0FDBD704770470000F8B50168CA488142E7
S315080018E000D0F8BDE34C174D002700F58230E168BB
S315080018F04A6A4F6201212A60FFF74EF8124E306895
S31508001900032806D8DFE800F002070B1300200021A1
S3150800191009E02F60F8BD28682060012002E02868E9
S31508001920606000200121BDE8F84000F017BC286877
S31508001930A06000210024012000F010FC3460F8BDEE
S31508001940000001403400002030000020B0B500F04F
S3150800195076FB10D000F06BFB00284FF0010005D194
S315080019602068C16821F0400100F085FB002184F859
S315080019703C1084F83D50B0BD704710B540B10446E0
S31508001980C06F08B900F08AFB00F047FB012801D1B7
S31508001990012010BD606A08B100F004FB00F0FBFAF4
S315080019A021F02A01816000F0C1FABDE8104000F07C
S315080019B0CBBD000010B5AAB0044625A81421FEF731
S315080019C06FFC01A89021FEF76BFC2068BD49884290
S315080019D017D0B249884234D14020019001A8FFF7B8
S315080019E0A7F808B1FEF7EBFE6B48416941F0100114
S315080019F04161416901F0100100F061FA4FF4C060DD
S31508001A0012E08020019001A8FFF792F808B1FEF7CE
S31508001A10D6FE6148016941F400310161016901F4AA
S31508001A20003100F04CFA0C20072129910321289156
S31508001A30002127910221CDE92501584825A9FEF75D
S31508001A40E3FE2AB010BD00BF2DE9F8430446C06F77
S31508001A5020281AD18846D9B11746CAB10020C4F839
S31508001A6084001D462120E067FEF7A4FFA4F8527003
S31508001A700646A4F85070A068B0F5805F01D12069C9
S31508001A8048B14FF00009474607E00220BDE8F88351
S31508001A900120BDE8F8830027C146B4F85200B8B162
S31508001AA02046802100F072FAB8B927B1216817F8E4
S31508001AB0010B886206E039F8021B206800276FF3DD
S31508001AC05F218162B4F852000138A4F85200E4E7B5
S31508001AD02046402100F05AFA10B10320BDE8F883E9
S31508001AE02020E0670020BDE8F883FEE72DE9F04FE7
S31508001AF087B029484FF0000ACDF818A0274C284F80
S31508001B0000224FF0300804F5E056016841F08001E4
S31508001B100160016801F0800101910199016841F0B5
S31508001B2001010160016801F0010101910199016853
S31508001B3041F0020101600068302100F002000190C6
S31508001B4001983046B847204630210022B84704F5A8
S31508001B50806507210022A1462846B8470124CDE919
S31508001B6004AACDE9028402AFDFF838B03046394618
S31508001B70D84748463946CDE904AACDE90284D8476C
S31508001B80072002903946CDF814A0CDE9034A284625
S31508001B90D84707B0BDE8F08F303802400000024051
S31508001BA0A90900080908000810B588B015480021D9
S31508001BB04CF25032C723144C0791CDE90511C0E900
S31508001BC00043C0E90212C0E904118161FFF7BEFCB7
S31508001BD008B1FEF7F4FD4FF48050049004A90948B3
S31508001BE0FFF77AFD08B1FEF7EAFD00200390CDE97C
S31508001BF0010001A90348FFF76BFC08B1FEF7DFFDFA
S31508001C0008B010BD9C00002000000140B0B588B0A7
S31508001C10184C4FF08041002506950295CDE90055F0
S31508001C20204640F80C1F4FF0FF318561C0E9015589
S31508001C30C0E90315FFF78AFC08B1FEF7C0FD50207E
S31508001C4004900C34079505950720039003A92046B0
S31508001C50FFF77CFE08B1FEF7B2FD00200290009067
S31508001C6069462046FFF734FC08B1FEF7A8FD08B020
S31508001C70B0BD00BF3800002010B5074800210C226F
S31508001C804FF4E133054C00F0D6F818B1BDE8104022
S31508001C90FEF795BD10BD00BFE8000020001001400A
S31508001CA010B5074800210C224FF4E133054C00F02B
S31508001CB0C2F818B1BDE81040FEF781BD10BD00BFDF
S31508001CC07001002000440040FEE700002DE9F041C5
S31508001CD096B0074600200DF102060D46ADF85400F1
S31508001CE0CDE91300ADF84800CDE91000ADF83C0089
S31508001CF0CDE90D0031219046701CFEF7D1FA23205C
S31508001D008DF8020013AC0A223846214600F0D0FFAF
S31508001D102046FEF7DCFA02280AD001280CD100F08A
S31508001D2017F943F23001315230440021817003E043
S31508001D3000F00EF9302131520DF1020613A9304692
S31508001D40FEF7B9FA10AC28460A22214600F0B0FF81
S31508001D502046FEF7BCFA04280AD003280CD100F066
S31508001D60F7F843F25001315230440021817003E004
S31508001D7000F0EEF8502131520DF1020510A928465F
S31508001D80FEF799FA0DAC40460A22214600F090FF6C
S31508001D902046FEF79CFA042809D003280DD002280D
S31508001DA014D12846FEF793FA144929500EE028461E
S31508001DB0FEF78DFA5421295208E02846FEF787FADD
S31508001DC043F2540129522844002181700DA928465E
S31508001DD0FEF771FAFEF77BFA09492950284632219F
S31508001DE000F046FB07A0294600F0BAFF0648022184
S31508001DF0FEF7D2FD16B0BDE8F08100BF54303000C2
S31508001E00210D0A0025730000000402400068FFF750
S31508001E105DBF7047B0EE480AF0EE490AB0EE4A1ABE
S31508001E207047B8EEC11A20EE010ABDEEC00A10EEE0
S31508001E30101A00F095BFC0E90043C0E90211C0E9D5
S31508001E400412C0E90611C0E90811FFF796BD01683A
S31508001E5041F080510160006800F0805001900198BF
S31508001E6028687047D7F8000420F00F0040EA0800F9
S31508001E70C7F80004D7F8000400F00F004045704783
S31508001E800843C6F890007047206850E8020F21689A
S31508001E9020F0010041E80202002A704720EE010BFB
S31508001EA0B7EEC00B80ED010A7047B8EEC11A20EEF6
S31508001EB0010ABDEEC00A10EE103A9C427047009126
S31508001EC00099016841F001010160006800F0010015
S31508001ED000900098704700F01F010122C0B202FA74
S31508001EE001F170472860FEF765BD3060FEF762BDF8
S31508001EF03060FEF75FBD012084F8480084F83E0094
S31508001F0084F83F0084F8400084F8410084F84200D1
S31508001F1084F8430084F8440084F8450084F84600B1
S31508001F2084F8470084F83D00002010BD016841F0A0
S31508001F3001010160204670472020E067C4F8800050
S31508001F40704720EE011BB7EEC11B80ED011A7047E2
S31508001F503046FEF7BCB9001BB0F57A7F7047306F84
S31508001F6020F001003067306F20F0040070471B0432
S31508001F7043EA801040EA026040EA0170C6F884002D
S31508001F80704700222B46204600F0D8BB0022334675
S31508001F90009500F0D3BB2068416821F49041416068
S31508001FA081687047204600F07BBAD1E90123C968E9
S31508001FB01A4342EA0121826822F47F421143816072
S31508001FC081687047002084F83C002046704780ED01
S31508001FD0010A7047306820F480303060306820F499
S31508001FE08020704702F0E0421144626841EA82119B
S31508001FF070474DF808ED2046FFF76BFC20465DF864
S3150800200008EBFFF767BCB06800F00C0008287047BB
S31508002010D6F88410D6F8842070472420E067206814
S31508002020016821F001010160204600F0B7BA84F882
S315080020303D002046012584F83C5000F00DB990F883
S315080020403C2004460220012A704702400020062A46
S315080020507047044690F83D000028704741E80002A2
S31508002060002A7047086840F00100086000207047A1
S315080020702046FFF78DBBC160C16821F48041C1606D
S3150800208000207047002184F83C10012184F83D1097
S3150800209070474B68CA68194600F024B9002084F8CE
S315080020A078002046FFF786BC022084F83D00211DF3
S315080020B0206800F063B870477047FEF77FBC0000E1
S315080020C0B0B592B01F480024CDE90944CDE90744CC
S315080020D00225016841F080510160006800F08050D7
S315080020E0009000981848016841F440410160006872
S315080020F000F44040009000981195CDE90F55C02096
S315080021000E900C200D904FF48000CDE90B504FF443
S31508002110803006900120059005A8FFF72FF8FEF7F6
S31508002120DFFC4FF4805004900621CDE901544FF4AA
S31508002130A05003900F2000906846FEF753FF12B098
S31508002140B0BD00BF40380240007000400248016838
S3150800215041F470010160704788ED00E0034A0023EE
S31508002160536013680133136000F0A6BB30000020EB
S315080021700148FFF70EBB00BF9C00002070B52B4A34
S31508002180036890422BD0B0F1804F1CBF284CA04268
S3150800219041D123F070034C682343B0F1804F1CBF34
S315080021A0234CA0421FD0234CA0421CBF234CA04264
S315080021B019D0234CA0421CBF224CA04213D0224C5B
S315080021C0A0421CBF1C4CA0420DD0204CA0420AD0F5
S315080021D01F4CA04207D01F4CA04204D007E023F0B2
S315080021E070034C682343CC6823F4407323434E6939
S315080021F023F080030C688D6833430360C5628462EC
S31508002200904203D002F58062904201D109690163C8
S315080022100121416170BD074CA042BAD0064CA042CC
S31508002220B7D0064CA042B4D0B7E700BF00000140C3
S31508002230000400400008004000040140000C004073
S3150800224000180040001C00400020004000400140EB
S31508002250004801400044014070B50068204AD1E9B1
S31508002260003502F1700486682C40324022434FEA5A
S3150800227035141A438260072C08D80022DFE804F0D8
S315080022802E2E2E2E04080E14052B19D1012225E018
S315080022908B680A69194600F025F81EE08B680A69FA
S315080022A0194600F030F818E0D1E9022309691A4303
S315080022B042EA0121826822F47F42114381600CE0E0
S315080022C0026A036A23F0010303620969836923F03A
S315080022D0F00343EA0111816102620022104670BDD3
S315080022E088FFFEFF10B5036A046A24F0010404623D
S315080022F0846924F0F00444EA0212826123F00A0297
S315080023001143016210BD036A23F010030362836957
S3150800231023F4704343EA0232036A826123F0A0027F
S3150800232042EA011101627047B0B504464D48074DAF
S315080023302146A8474A482146A8474B482146A84768
S315080023404A4821462A46BDE8B04010470B2D0008EA
S3150800235045489FED091B80ED010A444880ED010AB6
S31508002360B7EEC00A3E4820EE010BB7EEC00B80ED73
S31508002370010A3C48FFF72BBE333333333333E3BF0D
S31508002380BEEE001A384820EE011AB7EEC00A80EDF4
S31508002390011A364880ED011A9FED051B304820EEDC
S315080023A0010BB7EEC00B80ED010A2E48FFF70FBEF2
S315080023B0333333333333F33FB7EE081A2A4820EE64
S315080023C0011AB7EEC00A80ED011A9FED091B2448D1
S315080023D07146FFF7B6FD8E469FED071B21487146ED
S315080023E0FFF7AFFD8E469FED061B2048FFF756BD4B
S315080023F0CDCCCCCCCCCCE43F9A9999999999E13F2C
S31508002400666666666666F63FB7EEC00A9FED0C1B03
S31508002410FC487146FFF795FD8E469FED0B1BFA4863
S315080024207146FFF78EFD8E469FED091BF7487146EC
S31508002430FFF787FD8E469FED081BF548FFF72EBD73
S315080024407B14AE47E17AF43FB81E85EB51B8F63FE8
S315080024505C8FC2F5285CE73FD7A3703D0AD7EB3FF0
S31508002460F8010020240200209402002068020020BF
S31508002470F8B50C4605460027084EA74208BFF8BD22
S31508002480E919304601224FF47A73FFF7DDFA30680E
S31508002490C1690906FCD50137EFE700BF70010020C6
S315080024A010B5416ACA0706D00268836A546824F4DC
S315080024B00034234353608A0706D50268C36A546802
S315080024C024F48034234353604A0706D50268036B15
S315080024D0546824F48024234353600A0706D5026807
S315080024E0436B546824F4004423435360CA0606D554
S315080024F00268836B946824F48054234393608A06A5
S3150800250006D50268C36B946824F400542343936089
S315080025104A060FD50268036C546824F480141C43D9
S315080025205460B3F5801F05D1436C546824F4C00485
S3150800253023435360090606D50168806C4A6822F46D
S3150800254000221043486010BDBCB504460020C4F8FC
S315080025508400FEF72FFA054620680168090708D5A2
S315080025606FF07E4000904FF40011FFF70AFD58B94E
S3150800257020680068400709D56FF07E4000904FF448
S315080025808001FFF7FEFC08B10320BCBDFFF7D4FCB1
S315080025900020206684F878006066BCBD70B50446E5
S315080025A00068594E04F108030ECB05683540666984
S315080025B01943314341EA0503E1690B430360436864
S315080025C023F440531A434260A269236A1A43836874
S315080025D023F430631A4382604C4A904218D04C4A1E
S315080025E0904219D04B4A90421AD04B4A90421BD07F
S315080025F04A4A90421CD04A4A90421DD0494A9042C3
S3150800260040D0494A904242D148484A4A006817E0B1
S3150800261046480068800812E04448006800090EE051
S315080026204248006880090AE040480068000A06E057
S315080026303E480068000B02E03C480068800B3C4AB4
S3150800264000F0030052F820203B48B1F5004F0CD1AA
S315080026500121082A52D8DFE802F0051C25511F512E
S3150800266051512300FEF742FD18E00121082A45D8FA
S31508002670DFE802F0052B34442E4444443200FEF7CA
S3150800268035FD27E029482B4A0068800AD8E710223A
S31508002690DAE7FEF735FD01E0FEF742FD10B92AE05C
S315080026A04FF4004061684A0802EB40004FF6EF72AB
S315080026B0B0FBF1F0A0F1100191421ED84FF6F0716F
S315080026C00140C0F34200084413E0FEF719FD01E09B
S315080026D0FEF726FD10B90EE04FF4004061684FF68C
S315080026E0EF7200EB5100B0FBF1F0A0F1100191423E
S315080026F003D82168C860002100E001210020C4E950
S315080027001A00084670BD00BFF369FFEF0044004099
S3150800271000480040004C004000500040007800404F
S31508002720007C00400014014000100140903802402F
S31508002730A0360008903600080024F4002DE9F84376
S31508002740DDF820900446984616460F46006809F1BB
S315080027500105C1693940C91BB1FA81F14909B1427C
S3150800276025D1002DF5D0FEF725F9A0EB0800484540
S3150800277020D8B9F1000F1DD0206801684907E8D5AF
S31508002780C1690905E5D54FF400610162206850E882
S31508002790000F216820F4D070FFF760FCF6D1FFF730
S315080027A073FBFCD1FFF7C8FB04F1840012E000209C
S315080027B0BDE8F883206850E8000F216820F4D0703F
S315080027C0FFF74CFCF6D1FFF75FFBFCD12020E06752
S315080027D004F18000002184F878102021016003208C
S315080027E0BDE8F883FEE700009248C0ED010A90486C
S315080027F080ED010A904880ED011A9048C0ED011A53
S31508002800704700BFF801002024020020940200202F
S31508002810680200201D48D0E900100069014221D055
S315080028201B48D0E90010006901421FD01948D0E9B9
S315080028300010006901421DD01748D0E90010006950
S3150800284001421BD01548D0E900100069014219D091
S31508002850DFED130A9FED130AB0EE601AF0EE401A88
S31508002860FFF7C2BF9FED130AFDF7AABF9FED100A37
S31508002870FFF76EBD9FED0E0AFFF782BD9FED0B0AAF
S31508002880FFF79ABD9FED080AFFF7BEBD600200205C
S3150800289050020020C802002058020020C002002072
S315080028A06666A6BF9A99D93F66662640CDCC0C4087
S315080028B09A9919403333534070B505460E46084376
S315080028C0154C09D1204610210022FEF76DF8204646
S315080028D020210022FEF768F825B9012E02D101252C
S315080028E000220DE0012D08BF002E04D0012E08BFDE
S315080028F0012D03D070BD0025012201E0012201252A
S3150800290020461021FEF750F8204620212A46BDE829
S315080029107040FEF749B800BF001C0240BCB5094D1F
S3150800292004468DF807000DF1070101224FF47A736A
S315080029302846FFF789F82868C1690906FCD52046A4
S31508002940BCBD00BFE800002070B5C34C0D480E4E54
S3150800295010212246B047A4F580650C4840212A4636
S31508002960B0470B4880212A46B0470A484FF4807181
S315080029702246B0470848402122463346BDE8704003
S31508002980184700BF50020020412A000858020020BC
S3150800299060020020C0020020C80200202DE9F04194
S315080029A02DED068B9FED1B8A9FED1B9A9FED1BAAAB
S315080029B0DFF85C801A4CFFF72DFA4046A047FFF770
S315080029C029FA184D2846A047FFF724FA164E30462E
S315080029D0A047FFF71FFA154F3846A04714480021AD
S315080029E00222C0E90021C0F8088012480322C0E983
S315080029F00021856010480122C0E9002186600F4841
S31508002A000422C0E900218760BDEC068BBDE8F08191
S31508002A10300200209A99993FCDCCCC3D00000000A9
S31508002A205D2A000804020020A0020020740200208B
S31508002A3024020020F80100209402002068020020E9
S31508002A40FEB5C0E900120020CDE90300CDE901106A
S31508002A5001A91046FDF7D8FE06B080BD021D00216B
S31508002A60C0E90411C0E9061182EC030A70470000A8
S31508002A7010B57C4A7A491A4892ED001A91ED000A77
S31508002A804468FFF712FA27DA04699C4224DD92EDBE
S31508002A90011A91ED010A8468FFF707FA1CDA4469FE
S31508002AA09C4219DD92ED021A91ED020AC268B8EE4F
S31508002AB0C11A20EE010ABDEEC00A10EE101A8A42AB
S31508002AC00ADA82698A4207DD016801310160032951
S31508002AD004BF012010BD01E000210160002010BDE7
S31508002AE004000020000000002DE9F84F2DED028BB0
S31508002AF0FDF76EFFFFF7E4FAFEF7F8FFFFF7BCF8FD
S31508002B00FFF7CEF8FFF750F8FFF780F85048FEF7C2
S31508002B109FFD5048FEF76CFD4F4F504E1021002286
S31508002B200024A7F580652846B047284620210122BB
S31508002B30B047384604210122B04740F6B830FDF7C1
S31508002B4053FE9FED418BDFF818A1464E46A50C2C87
S31508002B5015D031190AEB040091ED000AB8EEC00B46
S31508002B6088EE000BB7EEC00B80ED000A2846B7EEDC
S31508002B70C00A53EC102B00F0F3F80434E7E70024FE
S31508002B803CA50C2C0BD00AEB040090ED000A30197A
S31508002B9090ED001A2846FFF744F90434F1E737A008
S31508002BA000F058FD06F10804B9460AF108060FF2C6
S31508002BB0E80B3BA53CA737484FF000080221C0F8B0
S31508002BC000804846FDF7E8FEFFF7BEFEFFF7E6FE83
S31508002BD0D146DFF890A0B8F1000F06D0B8F1020F81
S31508002BE00AD0B8F1030F03D116E0284600F0B8F86A
S31508002BF049465246384602E031462246584692ED44
S31508002C00001A91ED000AFFF70CF909F104090AF117
S31508002C10040A08F10108DEE70F4801218146FDF79D
S31508002C20BBFEFFF7F7FD1420FFF77EFBFFF720FF3B
S31508002C300028DFF82CA0BED00020BDEC028B01B026
S31508002C40BDE8F08F00BF00BF0000000000E06F4045
S31508002C509C0000204400002000040240A909000846
S31508002C60900000203800002025356C6620200D0ACB
S31508002C70000000002564200D0A00000057686974EA
S31508002C80652042616C616E636520446F6E65210D37
S31508002C9000000000340000202564290D0A00000009
S31508002CA0524742203D20280025642C2000000000C1
S31508002CB070B50A2A0A4609D120B1B0F1FF3F09DDED
S31508002CC00A460CE00A46302002F8010B0020107074
S31508002CD0084670BD0A4640422D2302F8013B0025EE
S31508002CE042F210730A24002BF0D090FBF3F635431A
S31508002CF007D006F1300506FB130002F8015B012533
S31508002D0000E00025B3FBF4F3EDE7B0B505468068AF
S31508002D100C4695ED010A80ED070A00F007F8014612
S31508002D2028462246BDE8B040FFF770B8B5EE400A1F
S31508002D30F1EE10FA04DCB5EE400AF1EE10FA0ADA02
S31508002D409FED061A20EE010ABDEEC00A10EE100A23
S31508002D5000F5AF6070474FF4AF60704700008C43D2
S31508002D600FB4054B10B503A9044A029800F0DAF827
S31508002D7010BC5DF814FB00001D29000800000020A7
S31508002D8002E008C8121F08C1002AFAD17047704726
S31508002D90002001E001C1121F002AFBD17047000084
S31508002DA02DE9FF5F82B00021DDE90430020DDDF870
S31508002DB040B0034318D044F61050A2F2FF32424303
S31508002DC01514119801281FD0A5EB0B00401C5FEACB
S31508002DD0000A4FF000064E4FDFF83891B0465046CD
S31508002DE015D5CAF1000413E0119801244AA3012855
S31508002DF001D16FEA0B010298119AC0E90031C0E9C6
S31508002E00024206B0BDE8F09FCBF10000DFE70446BA
S31508002E100021404A491842EB0450CDE9001012E05F
S31508002E20E00707D032463B4640464946FDF732FBA7
S31508002E308046894632463B4610461946FDF72AFB28
S31508002E4006460F466410002CEAD1DDE90401DDE9E7
S31508002E500023BAF1000F06DAFDF71CFB42464B4683
S31508002E60FDF718FB05E0FDF787FB42464B46FDF7E5
S31508002E7083FB04460E460022284BFDF705FC03D8C3
S31508002E804FF0FF30014607E00022254B2046314629
S31508002E90FDF759FAFDF7DFFB102409E0002C0ADBE1
S31508002EA00A220023FDF7C4F9039B30321A55641E23
S31508002EB050EA0102F2D1641C039AC4F111031444C6
S31508002EC0119A012A03D0012208430DD10AE00843CA
S31508002ED004D000204FF0110B119072E7A3EB0B05FD
S31508002EE06D1E0DE05B4504DD4FF0000205F101059E
S31508002EF004E003DA4FF00002A5F10105002AECD040
S31508002F0002981199C0E90231C0E9004579E7000045
S31508002F10000014400000F03F300000000000F043BD
S31508002F200000E03F2DE9FF4F95B09B4689460646CF
S31508002F3000250FE2252877D100242746F84A0121E3
S31508002F40059400E0044316F8013F203B01FA03F01C
S31508002F501042F7D130782A2811D06FF02F03307835
S31508002F60A0F13002092A16D8059A44F0020402EBA9
S31508002F70820203EB42021044761C0590EFE759F8EB
S31508002F80042B0592002A03DA504244F400540590B3
S31508002F9044F00204761C30782E2816D116F8010F54
S31508002FA044F004042A280DD06FF02F023078A0F1DF
S31508002FB03003092B09D807EB870302EB4303C7182D
S31508002FC0761CF3E759F8047B761C30786C280FD00A
S31508002FD006DC4C2817D068280DD06A2814D104E0DE
S31508002FE0742810D07A280FD10DE044F400140AE0B2
S31508002FF044F4801401E044F440147278824202D109
S3150800300004F58014761C761C307866280BD013DC01
S31508003010582877D009DC002875D04528F6D04628E8
S31508003020F4D047281AD19DE118E0632835D06428E2
S3150800303079D0652812D195E1702873D008DC672805
S31508003040F1D069286FD06E280DD06F2806D1B5E06B
S3150800305073282CD0752875D0782874D05A461799B5
S3150800306090476D1C75E1C4F30250022809D0032865
S315080030700DD0D9F8001004280DD00D6009F1040907
S3150800308067E1D9F80010EA17C1E90052F6E7D9F85E
S3150800309000100D80F2E70D70F0E719F8041B8DF8A3
S315080030A0001000208DF80100EA46012003E059F8D7
S315080030B004AB4FF0FF3061074FF0000102D40DE07A
S315080030C008F101018846B9420FDA8045F8DB1AF89B
S315080030D008100029F4D108E008F101018846814268
S315080030E0FADB1AF808100029F6D105985B46A0EB1A
S315080030F0080721463846179A00F094FA284400EB48
S31508003100080507E04DE029E10DE01AF8010B5A46DB
S3150800311017999047B8F10108F7D25B462146384619
S31508003120179A13E142E00A220092C4F302524FF0C2
S31508003130000A022A08D059F804CB032A4FEAEC7190
S315080031400AD00DE029E02AE009F1070121F007027B
S31508003150F2E802C1914609E00FFA8CFC4FEAEC71DD
S31508003160042A03D14FFA8CFC4FEAEC71002907DADE
S315080031700A460021DCF1000C61EB02012D2202E077
S31508003180220504D52B228DF80420012203E0E2074C
S3150800319001D02022F7E7904659E00A2102E01022E2
S315080031A00DE010214FF0000A00910BE010224FF0BD
S315080031B0000A44F004040827009203E008224FF0AE
S315080031C0000A0092C4F30252022A05D059F804CB29
S315080031D00021032A08D009E009F1070121F00702B6
S315080031E0F2E802C1914605E01FFA8CFC042A01D1D7
S315080031F00CF0FF0C4FF00008220728D5702806D0DF
S31508003200009B83F0100353EA0A0305D00EE0402220
S315080032108DF80420012208E05CEA010206D030227B
S315080032208DF804208DF8050002229046009B83F055
S31508003230080353EA0A030AD15CEA010201D16207CC
S3150800324005D530228DF804204FF001087F1E582836
S3150800325004D034A003900EA802900DE036A0F9E73A
S3150800326053466046009AFCF7E3FF84460398825C5F
S315080032700298401E029002705CEA0100F0D10298A2
S3150800328006A9081A00F1200A600702D524F480343A
S3150800329000E00127574502DDA7EB0A0000E0002001
S315080032A000EB0A01009005984144401A0590E00396
S315080032B006D45B462146179A059800F0B3F90544EB
S315080032C0002706E001A85A46C05D179990476D1C6D
S315080032D07F1C4745F6DBE0030CD55B462146179A6B
S315080032E0059800F09FF9054404E030205A461799DE
S315080032F090476D1C0099481E00900029F5DC08E0EF
S31508003300029802995A460078491C029117999047E3
S315080033106D1CBAF10001AAF1010AF1DC65E10000B1
S31508003320092801003031323334353637383961628D
S315080033306364656600000000303132333435363751
S3150800334038394142434445460000000000F058F928
S315080033500544761C307800287FF4ECAD19B0284671
S31508003360BDE8F08F620700D4062709F1070222F0AC
S31508003370070CFCE80223E14603F000485FEA080C64
S3150800338002D00FF2702C0DE05FEA045C02D50FF252
S31508003390682C07E05FEAC47C02D00FF2602C01E0DB
S315080033A0AFF2700C4FF0FF3823F00043CDF850C051
S315080033B065280CD006DC452809D046281DD04728A4
S315080033C03DD13DE0662818D067287ED138E0002137
S315080033D0112F01DB112000E0781CCDE9000106A9B8
S315080033E00EA8FFF7DDFCDDE90F010E9A0391002117
S315080033F0009207F1010A04914DE04FF00040009752
S31508003400CDE9011006A90EA8FFF7CAFCDDE90F02EF
S3150800341003920E9B11990022DDF80CA000930492EA
S3150800342011B9791C00EB010AB7EB0A0004D4C0F104
S31508003430FF3007F1010A0490AAEB0700019044E067
S31508003440012F00DA01270021112F01DD112000E0EC
S315080034503846CDE9000106A90EA8FFF7A1FCDDE96B
S315080034600F010E9A0391002104910092BA46210792
S315080034700CD40399514500DA8A46BAF1010F05DDE5
S31508003480009AAAF10101515C302908D0B84202DA43
S3150800349010F1040F06DA0121CDE9011015E0AAF1B1
S315080034A00101E9E7002805DC049901440491AAEB27
S315080034B0000102E0411C514500DD8A460499401A84
S315080034C0401C01904FF000400290200704D4019858
S315080034D0504501DBCDF8048000208DF84F00029896
S315080034E00DF14F07B0F1004F25D02B200E90029812
S315080034F04FF0020800280CDA404202902D200E9068
S3150800350007E00A210298FCF7E9FE3031029007F835
S31508003510011DB8F10001A8F10108F2DC02980028A3
S31508003520EFD1791E0E980870307800F0200040F030
S31508003530450007F8020D12A8C01B00F107081498E9
S31508003540007800B1012000EB0A01019801EBE07157
S3150800355005984144401A401E0590E00306D45B4690
S315080035602146179A059800F05DF8054414980078E6
S3150800357018B15A46179990476D1CE00324D55B4647
S315080035802146179A059800F04DF805441CE0049862
S31508003590002807DBDDE90301884203DD0098405C6B
S315080035A0179901E0179930205A469047049805F173
S315080035B00105401C04900198401E019004D12E205C
S315080035C05A46179990476D1CBAF10001AAF1010AEB
S315080035D0DDDC05E017F8010B5A46179990476D1C74
S315080035E0B8F10001A8F10108F4DC5B462146179AF8
S315080035F00598ABE62D0000002B0000002000000017
S315080036002DE9F041044600251E461746880404D4D1
S3150800361005E039462020B0476D1C641EF9D52846BA
S31508003620BDE8F0812DE9F041044600251E46904686
S31508003630C80301D5302700E02027880404D505E013
S3150800364041463846B0476D1C641EF9D52846BDE884
S31508003650F081000010B5044601E0FFF75FF914F8A1
S31508003660010B04490028F8D1BDE810400A20FFF7ED
S3150800367055B900000000002000000000000000000E
S3150800368001020304060708090000000001020304FA
S31508003690010000000400000002000000080000000D
S315080036A000000000040000000200000008000000FE
S315080036B0D03600080000002030000000802D0008E9
S315080036C00037000830000020A8060000902D0008EA
S315080036D00000000003000000D2000000A000000067
S315080036E05A000000E8030000E6000000960000000B
S315080036F001000000100000000024F4000000000093
S705080001F9F8
