:020000040800F2
:10000000E00500200D020008CD2200086F1F000847
:1000100081210008BB070008E32A00080000000057
:1000200000000000000000000000000001230008A4
:10003000BD07000800000000FF2200083923000867
:1000400027020008270200082702000827020008EC
:1000500027020008270200082702000827020008DC
:1000600027020008270200082702000827020008CC
:1000700027020008270200082702000827020008BC
:1000800027020008270200082702000827020008AC
:10009000270200082702000827020008270200089C
:1000A00027020008F12300082702000827020008A1
:1000B000270200082702000827020008270200087C
:1000C000270200082702000827020008270200086C
:1000D000270200082702000827020008270200085C
:1000E000270200082702000827020008270200084C
:1000F000270200082702000827020008270200083C
:10010000270200082702000827020008270200082B
:10011000270200082702000827020008270200081B
:10012000270200082702000827020008270200080B
:1001300027020008270200082702000827020008FB
:1001400027020008270200082702000827020008EB
:1001500027020008270200082702000827020008DB
:1001600027020008270200082702000827020008CB
:1001700027020008270200082702000800000000EC
:1001800027020008270200082702000827020008AB
:10019000270200082702000827020008270200089B
:1001A000270200082702000827020008270200088B
:1001B000270200082702000827020008270200087B
:1001C000270200082702000800000000270200089C
:1001D000270200082702000827020008270200085B
:1001E000270200082702000827020008270200084B
:1001F0002702000827020008DFF80CD000F05CFAA4
:1002000000480047012C0008E00500200648804710
:1002100006480047FEE7FEE7FEE7FEE7FEE7FEE7EB
:10022000FEE7FEE7FEE7FEE7C9230008F901000844
:100230002DE9F05F0546002092469B46884606461B
:10024000814640241BE0284641464746224600F0AE
:100250006AF853465A46C01A914110D311461846BF
:10026000224600F051F82D1A67EB01084F4622464E
:100270000120002100F048F817EB00094E41201E34
:10028000A4F10104DFDC484631462A464346BDE876
:10029000F09FD2B201E000F8012B491EFBD270475B
:1002A0000022F6E710B513460A4604461946FFF742
:1002B000F0FF204610BD421E12F8013F002BFBD17B
:1002C00011F8013B02F8013B002BF9D17047421CA9
:1002D00010F8011B0029FBD1801A704730B50B467E
:1002E000014600202022012409E021FA02F59D4266
:1002F00005D303FA02F5491B04FA02F52844151E3A
:10030000A2F10102F1DC30BD202A04DB203A00FA20
:1003100002F1002070479140C2F1200320FA03F35C
:10032000194390407047202A04DB203A21FA02F05A
:100330000021704721FA02F3D040C2F1200291401F
:100340000843194670472DE9FE4F804681EA0300B5
:10035000C00F0C46009021F0004123F00045B8EB9F
:100360000200A94105D24046214690461C460B4654
:10037000024623F00040104347D0270DC7F30A0080
:10038000C3F30A510290401A019040286BDAC3F37C
:10039000130040F4801B0098924620B10023D2EB5A
:1003A000030A63EB0B0B01985946C0F1400250461B
:1003B000FFF7AAFF06460D4650465946019A00F03F
:1003C0008DF910EB08006141002487EA115284EA9C
:1003D000E7731A4340D0009A62B3019A012A4FEAA8
:1003E000075215DC001B61EB02014FF0004202EAEC
:1003F0000752CDE90042001C41F5801132462B46E0
:1004000000F08DF903B0BDE8F08F40462146F9E7D2
:10041000001B61EB0201001C41F5801300185B41D9
:100420002018A2F5001747EB030140EAD570B61972
:100430006D4111E06D084FEA360645EAC0754FEA96
:100440000752001B61EB0201001C41F580114908B5
:100450004FEA30000019514132462B4603B0BDE847
:10046000F04F00F04DB90098012240000023D0EB7E
:10047000020263EBE073009821464FEAE074B8EBA8
:10048000000061EB0401E9E783F000435BE781F0E2
:10049000004158E72DE9FE4F81EA030404F00044CF
:1004A00021F0004100944FF0000B23F0004350EA8C
:1004B00001045ED052EA03045BD0C3F30A54C1F3D3
:1004C0000A552C44A4F2F3340194A0FB0254C1F366
:1004D000130141F48011C3F3130343F4801301FBB0
:1004E000024400FB034E840A970A44EA815447EA17
:1004F0008357A4FB076802958D0A05FB07854FEA21
:10050000932C04FB0C542705029D4FEA065847EA3A
:100510001637B5EB08056EEB070C870E920E47EA0F
:10052000811742EA8312A7FB0201B6EB0B0164EBD1
:1005300000042B0D43EA0C335E1844EB1C50DA46E2
:100540005146E7FB0201C5F313044FEA0B3343EABC
:1005500014534FEA0432019C43EA0603A4F10C044D
:100560000294009CCDE900B400F0D9F803B0BDE8D6
:10057000F08F00200146F9E72DE9F04D81EA0304F0
:1005800004F0004B21F0004514464FF0000A23F020
:10059000004150EA050220D054EA01021DD0C5F303
:1005A0000A570246C5F31303C1F31300C1F30A56F9
:1005B00040F4801543F48013A7EB0608101BD646C1
:1005C00008F2FD3873EB050002D308F1010801E0E1
:1005D00092185B41B8F1000F03DA00200146BDE834
:1005E000F08D00204FF48011064684460EE0171B64
:1005F00073EB050705D3121B63EB050306434CEAB7
:10060000010C49084FEA300092185B4150EA01079B
:10061000EDD152EA030012D082EA040083EA050118
:10062000084305D0101BAB4106D20122002306E08F
:1006300000224FF0004302E06FF0010253101AEB6A
:1006400006004CEB085110EB0A0041EB0B01BDE832
:10065000F04D00F055B8C1F30A52C1F3130140F256
:10066000FF3341F480119A4202DA002001467047BC
:1006700040F233439A42A2F2334202DC5242FFF785
:1006800052BEFFF741BE000030B5041E71F10004F8
:1006900004DB4FF00044404264EB0101141E73F18F
:1006A000000405DB1C464FF00043524263EB040399
:1006B000994208BF904230BD064C074D06E0E06805
:1006C00040F0010394E8070098471034AC42F6D399
:1006D000FFF796FD5837000878370008202A06DB18
:1006E000CB17203A41FA02F043EAE07306E041FA00
:1006F00002F3D040C2F120029140084319467047EE
:1007000010B5141E73F1000408DA401C41F1000119
:1007100092185B411A4301D120F0010010BD2DE970
:10072000F04D92469B4611B1B1FA81F202E0B0FA67
:1007300080F220329046FFF7E7FD04460F4640EA7C
:100740000A0041EA0B0153465A46084313D01146AA
:1007500053EA010019D0C8F140025046FFF7E3FD0B
:1007600005460E46504659464246FFF7CDFD084322
:1007700005D0012004E020463946BDE8F08D002078
:10078000054346EAE0762C4337430A986305E40ABA
:10079000A0EB08000022FD0A44EA47540A3002D5C3
:1007A00000200146E9E7010510196941DDE9084526
:1007B00000196941BDE8F04DA2E7FEE770477047B8
:1007C000B0B5044600F004F940F208010546C2F253
:1007D0000001621C097818BF0C4400BF00F0F8F853
:1007E000401BA042FAD3B0BD2DE9F04F83B000F119
:1007F0003E4242F2004702F1FF72C4F202074FEAA2
:10080000B222002501920A224FF0010B4FF0030E95
:1008100000244FF00008B84208BF0922009208E007
:1008200008F101080434B8F1100F05F1020500F0D9
:10083000BA800BFA08FA0E6816EA0A09F0D0D1F865
:1008400004B00BF0030CACF10106012E18D8032202
:10085000866802FA05FECF6826EA0E06AF403743E7
:100860004FF0030E87604768CBF3001627EA0A07AC
:1008700006FA08F637434FF0010B476005E000BF6A
:10088000BCF1030F4FF0010B1CD0C7680EFA05F640
:100890008A68B743AA40BCF1020F42EA0702C2606D
:1008A00010D16FF0030204F01C0602EA58020F2375
:1008B0000244B340D2F820C00F692CEA0303B740CA
:1008C0003B43136202684B680EFA05F703F0030618
:1008D000BA4306FA05F73A4313F4403F02609FD04B
:1008E00043F6440243F6004EC4F20202C4F2010E83
:1008F0001346126842F4804204F00C071A601A682A
:1009000028F0030302F480420EEB030B02924FF631
:100910000842CFF6FF72029B5BF802C00F22019BD8
:10092000009E02FA07FA092B38BF1E462CEA0A037A
:1009300006FA07F74FF608423B43CFF6FF724BF833
:1009400002304FF0010BDEF808204B6842EA09073D
:10095000DE0258BF22EA090743F60C42CEF80870BF
:10096000C4F201029446126842EA09079E0258BF87
:1009700022EA0907CCF80070DEF804209E0342EA60
:10098000090758BF22EA0907CEF80470DEF80020F4
:10099000DB0342EA090758BF22EA0907CEF80070D4
:1009A0004FF0030E3CE703B0BDE8F08F00000000FD
:1009B000426902EA0103914341EA034181617047C0
:1009C000002A08BF09048161704700000000000090
:1009D00040F2D810C2F2000000687047000000002A
:1009E00040F2080040F2D811C2F20000C2F2000149
:1009F00000780A681044086070470000000000009A
:100A000080B5032000F05CF8002000F005F800F04D
:100A10002BF8002080BD0000B0B540F208014FF473
:100A20007A72C2F2000104460978B2FBF1F140F299
:100A30000402C2F200021268B2FBF1F1084600F0B3
:100A40002FFE0F2C4FF001050CD858B94FF0FF3096
:100A500000222146002500F023F840F20C00C2F2EB
:100A6000000004602846B0BD82B00A48016841F029
:100A700080510160016801F0805101910199416844
:100A800041F480414160406800F48040009000984B
:100A900002B070474038024002F026B80000000063
:100AA00070B514460D46064602F02EF82946224639
:100AB00001F00EFC01463046BDE8704002F02CB853
:100AC00002F03EB800000000B0B582B043F640002E
:100AD00047F20005C4F20200C4F20005016841F0CB
:100AE00080510160006800F08050019001982868F2
:100AF00040F480302860FFF76BFF04466868C0034D
:100B000006D4FFF765FF001BB0F57A7FF6D910E039
:100B1000286840F400302860FFF75AFF044600BF01
:100B20006868800308D4FFF753FF001BB0F57A7F95
:100B3000F6D9032002B0B0BD002002B0B0BD000065
:100B40002DE9F04782B0D0F800A043F690060446A5
:100B50005FEACA70C4F202061AD14FF000095FEAD8
:100B60000A3028D556F8040CE16B20F44010B1F59A
:100B7000801F40EA010046F8040CB1FA81F04FEA08
:100B8000501808BF4FF001095FEACA2018D429E0C5
:100B900056F8880C20F4000046F8880C606B56F874
:100BA000881C0143B0FA80F04FEA501946F8881CBF
:100BB0005FEA0A30D6D44FF000085FEACA2011D5A8
:100BC00056F8040C216C20F44000B1F5800F40EA87
:100BD000010008BF4FF00109002908BF4FF00108CC
:100BE00046F8040C5FEA8A6069D556F8500C47F263
:100BF000000740F08050C4F2000746F8500C56F849
:100C0000500C00F0805001900198386840F48070DA
:100C10003860FFF7DDFE05463868C00505D4FFF7EC
:100C2000D7FE401B6428F7D9F1E156F8200C10F4E8
:100C300040702BD0216B01F44071884226D056F8C9
:100C4000200C56F8201C41F4803120F4407046F806
:100C5000201C56F8201C21F4803146F8201C46F850
:100C6000200C56F8200CC00710D0FFF7B1FE054647
:100C700041F2883756F8200C800707D4FFF7A8FE0A
:100C8000401BB8424FF00300F4D92FE2206B56F816
:100C9000881C4FF6FF4300F4407221F4F811C0F6AF
:100CA000FF730340B2F5407F08BF194346F8881C24
:100CB0006FF31F3056F8201C084346F8200C2768B5
:100CC000F8065CD4780468D438046ED4F80374D47D
:100CD000B8037BD4780600F18280380600F1888062
:100CE000F80500F18E80B80500F19480780500F1D8
:100CF0009A80380500F1A080F80400F1A680B804BD
:100D000000F1AC80780200F1B280B80200F1B88046
:100D1000780300F1C480380200F1CA80780100F144
:100D2000D180380100F1D880F80008D556F8040CBD
:100D3000D4F88C1020F08060084346F8040CB9F118
:100D4000000F02BF0AF0807007F0007110EB010085
:100D500000F0448156F8900C20F0806046F8900C2A
:100D6000FFF736FE054600BF56F8900C000140F133
:100D7000C080FFF72DFE401B6428F5D947E156F8E7
:100D8000040C20F0807046F8040CA06B56F8041C8C
:100D9000084346F8040C780496D53068616E20F458
:100DA000403008433060380490D53068A16E20F49C
:100DB000402008433060F8038AD53068E16E20F4A3
:100DC000401008433060B8037FF584AF3068216F6E
:100DD00020F440000843306078067FF57EAF30682D
:100DE000616C20F003000843306038067FF578AF6F
:100DF0003068A16C20F00C0008433060F8057FF5E6
:100E000072AF3068E16C20F0300008433060B80504
:100E10007FF56CAF3068216D20F0C0000843306072
:100E200078057FF566AF3068616D20F44070084347
:100E3000306038057FF560AF3068A16D20F4406008
:100E400008433060F8047FF55AAF3068E16D20F454
:100E5000405008433060B8047FF554AF3068216ECD
:100E600020F440400843306078027FF54EAF306890
:100E7000A16F20F0806008433060B8027FF548AF72
:100E80003068E16F20F00060B1F1006F40EA0100CE
:100E900008BF4FF00108306078037FF53CAF306841
:100EA000616F20F040700843306038027FF536AF44
:100EB0003068D4F8801020F080500843306078010A
:100EC0007FF52FAF3068D4F8841020F0005008432D
:100ED000306038017FF528AF56F8040CD4F888103C
:100EE00020F00070084346F8040CF8003FF51EAFF0
:100EF00025E72068C10701D0616B31B1010317D527
:100F0000E16BB1F5801F13D118E056F80C1C56F8B0
:100F10000C2C01F4403102F0706263681144A26845
:100F200041EA831141EA027146F80C1C0103E7D43F
:100F3000C1021DD5216CB1F5800F19D156F80C1CDA
:100F400056F80C2C01F4403102F0E0421144626882
:100F5000E36841EA821141EA0361626A46F80C1CC7
:100F6000013A56F8041C21F01F01114346F8041CF5
:100F7000C10110D556F80C1C56F80C2C01F070610C
:100F800002F0E04263681144226941EA831141EAB8
:100F9000024146F80C1C80010CD5206961680004F0
:100FA000E26840EA8110A16840EA026040EA01700C
:100FB00046F80C0C56F8900C40F0806046F8900C07
:100FC000FFF706FD054600BF56F8900C000105D45A
:100FD000FFF7FEFC401B6428F6D918E017F0080064
:100FE00008BFB8F1000F00F0848056F8900C20F094
:100FF000805046F8900CFFF7EBFC054656F8900C35
:10100000800008D5FFF7E4FC401B6428F6D90320D4
:1010100002B0BDE8F0872068010301D5E16B19B18A
:10102000C1021ED5216CE1B956F8081C56F8082CEF
:1010300001F4403102F0E0421144D4E9052341EAD1
:101040008211A26A41EA03616FF0FF0346F8081CAF
:1010500003EB022256F8041C21F4F851114346F820
:10106000041C810214D5E16FB1F1006F10D156F864
:10107000081C56F8082C01F0706102F0E042636928
:101080001144226A41EA831141EA024146F8081CF0
:10109000000718D556F8080C56F8081C00F07060C8
:1010A00001F4403108446169E26940EA811040EA94
:1010B0000270E16A46F8080C56F8040C20F440303F
:1010C000084346F8040C56F8900C40F0805046F85F
:1010D000900CFFF77DFC044656F8900C800008D475
:1010E000FFF776FC001B6528F6D3032002B0BDE8AD
:1010F000F087002002B0BDE8F0870000000000008B
:101100002DE9F041002800F09C8043F608070446D2
:10111000C4F202078846D7F8F80300F00F008842AF
:101120000ED2D7F8F80320F00F0040EA0800C7F805
:10113000F803D7F8F80300F00F00404540F0818035
:101140002068810711D5410703D5396841F4E05182
:101150003960010703D5396841F460413960396865
:10116000A26821F0F00111433960C00729D06068FE
:10117000012804D157F8081C890309D461E002282A
:1011800057F8081C02D189015BD501E0890758D5C1
:10119000396821F0030108433860FFF719FC06465F
:1011A00041F288353868616800F00C00B0EB810FBF
:1011B00007D0FFF70DFC801BA842F3D90320BDE840
:1011C000F081D7F8F80300F00F0040450DD9D7F8AB
:1011D000F80320F00F0040EA0800C7F8F803D7F83A
:1011E000F80300F00F0040452BD12068410705D5DA
:1011F0003968E26821F4E05111433960000706D5EF
:101200003868216920F4604040EAC100386000F08D
:101210004BF8396843F24072C1F30311C0F6000283
:10122000515C40F20C02C2F20002C84040F20401DC
:10123000C2F2000108601068FFF7EEFB0020BDE875
:10124000F0810120BDE8F08140F20400C2F200000C
:10125000006870470000000080B5FFF7F5FF43F617
:10126000080143F25072C4F20201C0F6000209689C
:10127000C1F38221515CC84080BD00000000000025
:1012800080B5FFF7E1FF43F6080143F25072C4F264
:101290000201C0F600020968C1F34231515CC84046
:1012A00080BD00000000000010B543F60404C4F245
:1012B0000204606800F00C00082806D0042823D13E
:1012C00047F64000C0F27D1010BD22682068400241
:1012D000216847F64000C1F38811C0F27D1002F08A
:1012E0003F025CBF42F20040C0F2F4000023A0FBCA
:1012F0000101FEF79DFF21680222C1F3014102EBCB
:101300004101B0FBF1F010BD42F20040C0F2F40028
:1013100010BD0000000000002DE9F04182B000285F
:1013200000F0E7800446007843F60006C007C4F2E8
:1013300002064ED0B06800F00C00042806D13068D8
:10134000800346D56068002843D1D2E0B06800F041
:101350000C00082802D170684002F0D4606868B1BF
:10136000B0F5803F06D0B0F5A02F30681DD140F415
:1013700080203060306840F480301CE0306820F419
:1013800080303060306820F480203060FFF720FB30
:10139000054600BF306880031BD5FFF719FB401BD3
:1013A00064284FF00300F5D974E120F480303060F8
:1013B000306820F480203060FFF70AFB054600BF4C
:1013C0003068800305D4FFF703FB401B6428F7D97E
:1013D0002CE1207880072DD5B06810F00C0F07D0D5
:1013E000B06800F00C00082809D17068400206D4EB
:1013F0003068800717D5E06801287AD113E0E068EB
:101400000028306800F0D18040F001003060FFF724
:10141000DFFA05463068800705D4FFF7D9FA401B8C
:101420000228F7D902E13068216920F0F80040EA8B
:10143000C10030602078000723D560690028706FF4
:101440000FD040F001007067FFF7C2FA054600BFF9
:10145000706F800715D4FFF7BBFA401B0228F7D93D
:10146000E4E020F001007067FFF7B2FA054600BF24
:10147000706F800705D5FFF7ABFA401B0228F7D93C
:10148000D4E02078400738D4A569002D00F0018110
:10149000B06800F00C00082866D1012D706828D0D3
:1014A00000F48001E269914223D100F03F01226AF9
:1014B00091421ED147F6C071626A0140B1EB821FB2
:1014C00017D1A16A4FF6FF72C903914300F440326D
:1014D000A1F580318A420CD100F07061E26AB1EB73
:1014E000026F06D100F0E040216BB0EB017F00F00D
:1014F000D080012002B0BDE8F081306CC0000BD478
:10150000306C4FF0010840F080503064306C00F0D7
:1015100080500190019801E04FF0000847F2000769
:10152000C4F200073868C0050FD4386840F48070F2
:101530003860FFF74DFA05463868C00505D4FFF757
:1015400047FA401B6428F7D970E0A06800283FD014
:10155000012805D00528306F53D140F004003067D2
:10156000306F40F0010052E0306820F08070306051
:10157000FFF72EFA022D05460CD100BF306880011E
:1015800061D5FFF725FA401B02284FF00300F5D97B
:1015900080E000BF306880017BD5FFF719FA401B5F
:1015A00002284FF00300F5D974E020F0010030600C
:1015B000FFF70EFA054600BF306880077FF53AAFA7
:1015C000FFF706FA401B02284FF00300F4D961E050
:1015D000306F20F001003067306F20F0040030677A
:1015E000FFF7F6F9054641F2883700BF306F8007F4
:1015F00020D5FFF7EDF9401BB8424FF00300F5D9B5
:1016000048E020F001003067306F20F004003067C0
:10161000FFF7DEF9054641F2883700BF306F8007DB
:1016200008D4FFF7D5F9401BB842F7D9032002B020
:10163000BDE8F081B8F1000F3FF426AF306C20F028
:101640008050306420E704F11C078FCF0843D90392
:101650004FF6FF7340EA8210994340EA0760A1F514
:101660008031226B084340EA02707060306840F0BD
:1016700080703060FFF7ACF9044600BF306880012D
:1016800007D4FFF7A5F9001B02284FF00300F5D996
:1016900000E0002002B0BDE8F08100000000000082
:1016A00000F032BE000000007047000000000000A3
:1016B00070470000000000007047000000000000BC
:1016C000B0B590F83C20012A4FF002025BD0012314
:1016D00040F2004C80F83C30C4F2010C80F83D2010
:1016E00041F2FF750268C4F2000542F4806363456D
:1016F0005368D2F808E002BF23F470034C68234318
:1017000023F070030C682343AA4253600BDC40F2C1
:10171000FF73C4F200039A4215DCB2F1804F27D068
:1017200040F2004317E040F2FF33C4F201039A4253
:1017300016DC41F60003C4F200039A4218D00023DD
:10174000C4F2010309E040F60003C4F200039A4228
:101750000ED040F60043C4F200039A4208D00CE0D9
:1017600044F20003C4F201039A4201D0624504D15D
:101770002EF080038968194391600121002280F8CE
:101780003D1080F83C201046B0BD00000000000075
:1017900060B310B5044690F83D0028B9002084F8E5
:1017A0003C00204600F024F80220211D84F83D0072
:1017B000206800F025FE012084F8480084F83E00EF
:1017C00084F83F0084F8400084F8410084F8420027
:1017D00084F8430084F8440084F8450084F8460007
:1017E00084F8470084F83D00002010BD01207047B8
:1017F00010B586B0044601A81421FEF751FD2068FB
:10180000B0F1804F15D01B49884231D11A480022CF
:10181000416941F0010141610021406900F001008E
:10182000009000981920FFF73BF91920FFF734F9D1
:101830001EE01148016941F001010161016901F0F7
:10184000010100910099016841F00101016000214E
:10185000006800F00100009001200590CDE903111F
:101860000221CDE90101009801A90448FEF7BCFF5F
:1018700006B010BD000001403038024000000240B8
:1018800090F83D10012915D1022180F83D10016822
:1018900041F2FF70C4F2000081420DDC40F2FF70A3
:1018A000C4F20000814215DCB1F1804F2BD040F230
:1018B000004017E00120704740F2FF30C4F2010001
:1018C000814214DC41F60000C4F2000081421AD0CB
:1018D000002014E040F60000C4F20000814212D063
:1018E00040F60040C4F2000081420CD017E044F200
:1018F0000000C4F20100814205D040F20040C4F271
:10190000010081420BD107228868C0F20102024027
:101910000020062A18BFB2F5803F00D17047086842
:1019200040F0010008600020704700000000000047
:1019300090F83D10012919D1022141F2FF7280F87F
:101940003D10C4F200020168C868914240F00100F5
:10195000C8600DDC40F2FF70C4F20000814215DC6B
:10196000B1F1804F2BD040F2004017E001207047CA
:1019700040F2FF30C4F20100814214DC41F6000065
:10198000C4F2000081421AD0002014E040F60000AA
:10199000C4F20000814212D040F60040C4F20000C0
:1019A00081420CD017E044F20000C4F201008142F1
:1019B00005D040F20040C4F2010081420BD1072261
:1019C0008868C0F2010202400020062A18BFB2F562
:1019D000803F00D17047086840F001000860002097
:1019E000704700000000000010B5044690F83C006D
:1019F00001284FF0020008BF10BD0122882384F89F
:101A00003C20CFF6FE7384F83D00206882681A40BF
:101A100082600A684F2A0FDC1F2A22DD202A18BFA5
:101A2000302A21D0402A47D14B68CA68194600F0B5
:101A3000DBFD2068402118E06F2A1ADDB2F5005F57
:101A400023D0B2F5805F2DD0702A35D1D1E9012C99
:101A5000CB68614600F068FD2068816841F077013D
:101A60001DE00AB1102A27D1114600F069FD0020BF
:101A700023E0502A18D0602A1ED14B68CA68194644
:101A800000F0C6FD20686021EFE7D1E9012CCB68AA
:101A9000614600F049FD2068816841F48041816021
:101AA00000200AE0002008E04B68CA68194600F0F0
:101AB0009BFD20685021D8E70120012184F83D10CA
:101AC000002184F83C1010BD7047000000000000A9
:101AD00010B5044600680169890744BFC1685FEA20
:101AE000817147D420680169490744BFC1685FEA32
:101AF00041714BD420680169090744BFC1685FEA9E
:101B0000017150D420680169C90644BFC1685FEA09
:101B1000C16154D420680169C9071CBFC1685FEA6C
:101B2000C17159D120680169090644BFC1685FEAE3
:101B3000016158D420680169C90544BFC1685FEAE2
:101B4000016157D420680169490644BFC1685FEA52
:101B5000416156D420680169890646BFC1685FEAC1
:101B6000816110BD6FF0200101612046BDE8104089
:101B7000FFF7A2BD6FF002010161012121778069A9
:101B8000800745D02046FFF79FFF47E06FF0040134
:101B9000016102212177806910F4407F41D0204605
:101BA000FFF792FF43E06FF0080101610421217704
:101BB000C06980073ED02046FFF786FF40E06FF007
:101BC0001001016108212177C06910F4407F3AD0EB
:101BD0002046FFF779FF3CE06FF0010101612046EC
:101BE00000F040F89EE76FF0800101612046FFF7AA
:101BF0005FFD9FE76FF4807101612046FFF754FDA0
:101C0000A0E76FF040010161204600F0C1F8A1E7B4
:101C1000204600F021F8204600F022F8002020772E
:101C200060E7204600F018F8204600F019F8002080
:101C300020775FE7204600F00FF8204600F010F80C
:101C4000002020775EE7204600F006F8204600F0EE
:101C500007F8002020775DE77047000000000000D3
:101C60007047000070B501681F48814200D070BD08
:101C70001E4C0026E1681E4D4A6A4E6200F5823015
:101C800001212A60FEF794FE1A480068032808D84C
:101C9000DFE800F00209111A24A001F03FFD002046
:101CA0001CE02E6070BD29681DA001F0BDF82868F9
:101CB0002060012006E0296816A001F0B5F8286828
:101CC0006060002001210AE029680BA001F0ACF857
:101CD0000CA001F023FD2868A06001200021BDE8D0
:101CE000704000F07BBB00BF0000014018000020E6
:101CF0001400002010000020424C5545203D2025B6
:101D0000640D0A002D2D2D54435320454E44212DA2
:101D10002D2D0D00475245454E203D2025640900DC
:101D2000524544203D202564090000002D2D2D54EE
:101D30004353205354415254212D2D2D0D000000AA
:101D4000B0B5044690F83C0001284FF0020008BFEF
:101D5000B0BD012584F83C5084F83D00204600F0D9
:101D6000F7FB00284FF0010009D12068C16821F07D
:101D70004001C160C16821F48041C16000200021A0
:101D800084F83D5084F83C10B0BD00000000000015
:101D9000704700000000000010B5A0B10446C06FFD
:101DA00028B9002084F87800204600F025F8242087
:101DB000E0672068016821F001010160204600F021
:101DC000FBFC012801D1012010BD606A10B1204642
:101DD00000F04AFC2068416821F49041416081682C
:101DE00021F02A018160016841F001010160204673
:101DF000BDE8104000F0A8BC10B5AAB0044625A864
:101E00001421FEF74DFA01A89021FEF749FA206847
:101E1000DA49884221D0CA49884249D1002012902B
:101E20004020019001A8FEF78BFE08B1FEF7C7FC29
:101E30007A48416941F010014161416901F01001A6
:101E400000910099016841F001010160006800F013
:101E5000010000904FF4C0601CE00020139080202F
:101E6000019001A8FEF76CFE08B1FEF7A8FC6B48D4
:101E7000016941F400310161016901F4003100910F
:101E80000099016841F001010160006800F0010063
:101E900000900C20259025A9009807202990032068
:101EA000289000202790022026905D48FEF79CFC99
:101EB0002AB010BD000000002DE9F04182B00446B8
:101EC000C06F20283DD10E4600294FF001004BD0B5
:101ED0001746002A48D04FF0000821201D46C4F8BC
:101EE0008480E067FEF774FDA4F85070A4F8527087
:101EF0000746A168B1F5805F0FD12069002814BFA3
:101F00003046B046064608E016F8010B21688862A4
:101F1000B4F852000138A4F85200B4F85200A0B14D
:101F20008021002220463B46009500F065FDA0B9C7
:101F3000002EE9D138F8020B216800266FF35F20EC
:101F4000E5E7022002B0BDE8F081402100222046F2
:101F50003B46009500F050FD18B1032002B0BDE8EB
:101F6000F0812020E067002002B0BDE8F081FEE7AC
:101F70002DE9F04F87B04FF0000A2848CDF818A09F
:101F8000274C016804F5E05641F08001254F0160BF
:101F9000002201684FF0300801F0800101910199A1
:101FA000016841F001010160016801F00101019146
:101FB0000199016841F0020101603021006800F0E0
:101FC0000200019001983046B84720463021002297
:101FD000B84704F58065072128460022A146B84786
:101FE00002AF0124DFF840B030463946CDE904AAFB
:101FF000CDE90284D84748463946CDE904AACDE95F
:102000000284D8470720CDF814A0CDE9034A0290F6
:1020100028463946D84707B0BDE8F08F303802402F
:1020200000000240C1090008E907000810B588B0A7
:10203000F14800214CF2503240F2E733154C079141
:10204000C0E90043C0E90212C0E904118161CDE991
:102050000511CDE90311CDE90111FFF799FB08B195
:10206000FEF7ADFB4FF4805004A90490E248FFF75F
:10207000BBFC08B1FEF7A3FB002001A90390CDE94A
:102080000100DD48FFF71CFB08B1FEF798FB08B024
:1020900010BD00BF00000140B0B588B003A81421F6
:1020A000FEF7FEF8174C4FF080412046002540F81F
:1020B0000C1F4FF0FF310295CDE900558561C0E955
:1020C0000155C0E90315FFF763FB08B1FEF777FB85
:1020D0005020079505950C3404900720039003A920
:1020E0002046FFF72DFE08B1FEF769FB0020694688
:1020F000029000902046FFF7E3FA08B1FEF75FFB7D
:1021000008B0B0BD1800002010B50C4800210C220A
:102110004FF4E1330A4CC0E90043C0E90211C0E9C1
:102120000412C0E90611C0E90811FFF735FE18B125
:10213000BDE81040FEF743BB10BD00BFC800002043
:102140000010014010B50C4800210C224FF4E1337F
:102150000A4CC0E90043C0E90211C0E90412C0E919
:102160000611C0E90811FFF717FE18B1BDE81040CD
:10217000FEF725BB10BD00BF500100200044004009
:10218000FEE700002DE9F04196B0074600200DF172
:1021900002060D46ADF854003121CDE91300ADF82B
:1021A00048009046CDE91000ADF83C00CDE90D00A7
:1021B000701CFEF775F8232013AC8DF8020038462A
:1021C00021460A2200F002FE2046FEF780F802288F
:1021D0000BD001280ED13046FEF779F843F23001DA
:1021E000315230440021817004E03046FEF76FF830
:1021F000302131520DF1020613A93046FEF75BF88B
:1022000010AC284621460A2200F0E0FD2046FEF7E9
:102210005EF804280BD003280ED13046FEF757F89D
:1022200043F25001315230440021817004E03046C5
:10223000FEF74DF8502131520DF1020510A9284644
:10224000FEF739F80DAC404621460A2200F0BEFDEB
:102250002046FEF73CF8042809D003280DD00228B8
:1022600014D12846FEF733F8144929500EE02846C9
:10227000FEF72DF85421295208E02846FEF727F8EA
:1022800043F2540129522844002181700DA92846A7
:10229000FEF711F8FEF71BF80949295028463221AC
:1022A00000F0C8F907A0294600F0BEFD064802214B
:1022B000FEF77EFB16B0BDE8F08100BF5430300061
:1022C000210D0A0025730000000402407047000041
:1022D00000F007004FF0FF3C80F00703042B28BFFD
:1022E000042303380CFA03F338BF002099430CFA97
:1022F00000F301FA00F022EA030108437047704737
:102300007047000000000000B0B501380024B4EBB5
:10231000106F02D001242046B0BD4EF210050F21EF
:10232000CEF2000568604FF0FF3000F0F5FB0720AB
:10233000AC6028602046B0BDFEF752BBB0B592B08D
:1023400000241F48CDE90944CDE90744016802256E
:1023500041F080510160006800F0805000900098CA
:102360001848016841F440410160006800F44040B1
:10237000009000981195C020CDE90F550E900C20CB
:102380000D904FF48000CDE90B504FF48030069053
:102390000120059005A8FEF7BFFFFEF795FB4FF45F
:1023A0008050062104904FF4A05003900F20CDE9F7
:1023B000015400906846FEF7A3FE12B0B0BD00BF06
:1023C00040380240007000404EF68850CEF20000C7
:1023D000016841F47001016070470000034A002366
:1023E000536013680133136000F0BABB1000002083
:1023F0000148FFF76DBB00BF7C000020000000001B
:1024000010B540F6FF3E40F2004CC4F2000E0368E7
:102410007045C4F2010C0FDCB0F1804F14D040F2D3
:102420000042C4F2000290420ED040F60002C4F214
:102430000002904208D00BE040F60042C4F20002D5
:10244000904218BF604568D123F070024B68134377
:1024500041F6FF72C4F2000290420DDC70451FDCB1
:10246000B0F1804F41D040F20042C4F200029042ED
:102470003BD040F6000221E043F6FF72C4F20102B5
:10248000904220DC42F20002C4F2000290422CD0C2
:102490000022C4F20102904227D0604525D028E0F6
:1024A00040F60042C4F2000290421ED041F6000203
:1024B000C4F20002904218D041F60042C4F2000279
:1024C000904212D015E044F20002C4F201029042A0
:1024D0000BD044F60002C4F20102904205D044F24F
:1024E0000042C4F20102904203D123F44072CB684F
:1024F000134323F080024B69D1F800E08C681A4343
:10250000026040F48062C4626245C0F828E004BF03
:10251000096901630121416110BD0022C4F2010279
:1025200090423FF491AF93E7D0F808C011432CF4E8
:102530007F4241EA0321114381607047000000009F
:10254000826822F07002114341F0070181607047F8
:1025500010B500684FF6887C8268CFF6FE7C02EAF0
:102560000C044B680CF17002D1F800E01A401443DF
:102570004FEA331244EA0E03072A83600CD84FF067
:10258000000CDFE802F004040404060D1319604691
:1025900010BDBEF1050F16D14FF0010C604610BD05
:1025A0008B680A69194600F01FF819E08B680A6900
:1025B000194600F02DF813E0D1E9022C0B696146B1
:1025C000FFF7B2FF0CE0026A036A23F00103036223
:1025D0008369096923F0F00343EA01118161026212
:1025E0004FF0000C604610BDD0F820C0036A23F005
:1025F00001030362836923F0F00343EA02122CF023
:102600000A03194382610162704700000000000064
:10261000036A23F0100303628369D0F820C023F417
:10262000704343EA02322CF0A00343EA01118261B5
:1026300001627047F8B50C4605460027084EA742D0
:102640000CD0E919304601224FF47A73FFF734FCBD
:102650003068C1690906FCD50137F0E7F8BD00BF55
:102660005001002000000000416ACA070CD18A070F
:1026700015D44A071ED40A0727D4CA0630D48A06BE
:1026800039D44A0655D541E00268D0F828C05368CD
:1026900023F4003343EA0C0353608A07E9D5026848
:1026A000D0F82CC0536823F4803343EA0C03536002
:1026B0004A07E0D50268D0F830C0536823F480237D
:1026C00043EA0C0353600A07D7D50268D0F834C038
:1026D000536823F4004343EA0C035360CA06CED583
:1026E0000268D0F838C0936823F4805343EA0C039F
:1026F00093608A06C5D50268D0F83CC0936823F47D
:10270000005343EA0C0393604A0612D50268D0F8DE
:1027100040C05368BCF5801F23F4801343EA0C03C8
:10272000536006D1536823F4C00C436C43EA0C0396
:102730005360090658BF70470168806C4A6822F4EC
:102740000022104348607047B0B582B000210446B3
:10275000C0F88410FEF73CF92168054609680907AE
:102760000AD56FF07E404FF4001100220090204601
:102770002B4600F041F970B92068006840070DD57C
:102780006FF07E404FF480010022009020462B46DF
:1027900000F032F910B1032002B0B0BD2020E06794
:1027A000C4F8800000202066606684F8780002B0DB
:1027B000B0BD000000000000B0B5054601688068AB
:1027C0002A6910436A6946F6F314EB680243D5F8A8
:1027D0001CC00868CEF6FF7442EA0C022040104389
:1027E0000860486820F4405018434860A8692A6A85
:1027F0008B68104323F4306247F2FF73C4F2000386
:10280000104399424FF01002886018DC44F6FF3004
:10281000C4F2000081422BDC44F20040C4F200000C
:1028200081424BD044F60000C4F2000081425ED1E8
:1028300043F69000C4F202000068010952E040F63D
:10284000FF70C4F20100814225DC47F60000C4F2AB
:102850000000814239D047F60040C4F200008142B6
:1028600045D143F69000C4F202000068810B39E0C4
:1028700044F60040C4F2000081422DD045F2000031
:10288000C4F20000814232D143F69000C4F202004B
:102890000068010A26E041F20040C4F201008142D2
:1028A0004BD041F20000C4F2010081421FD143F637
:1028B00090004CA2C4F20200016814E043F69000BC
:1028C000C4F20200006881080CE043F69000C4F2F4
:1028D00002000068010B05E043F69000C4F202001C
:1028E000006881093BA201F0030052F8202042F267
:1028F0000040BCF5004FC0F2F4000FD1082A4FF0A1
:10290000010100F26180DFE802F005202B5F245F07
:102910005F5F2900FEF7A0FC10BB1DE0082A4FF006
:10292000010151D8DFE802F005343F5038505050D3
:102930003D00FEF791FCB0BB31E043F6900029A2C8
:10294000C4F202000068810ACDE7FEF799FC38B9AD
:1029500002E0FEF7A9FC18B9002135E04FF4004071
:1029600069684A0802EB40004FF6EF72B0FBF1F0E5
:10297000A0F11001914209D84FF6F0710140C0F367
:10298000420008442968C86000211DE001211BE0C5
:10299000FEF776FC38B902E0FEF786FC18B9002194
:1029A00012E04FF4004069684FF6EF7200EB5100FF
:1029B000B0FBF1F0A0F11001914204D880B2296877
:1029C000C860002100E001210020C5E91A00084686
:1029D000B0BD00BF000000000400000002000000C5
:1029E00008000000010000000400000002000000D8
:1029F00008000000000000002DE9F04381B004460B
:102A00000068C0690840401AB0FA80F0400990425E
:102A100063D1DDF820800D461646994608F101077E
:102A20005FB900BF2068C0692840401BB0FA80F041
:102A30004009B04251D1002FF4D0FDF7C9FFB8F1E1
:102A4000000F2BD0A0EB0900404527D82068016873
:102A5000490744BFC1695FEA0151E3D54FF4006102
:102A6000016200BF206850E8000F216820F4D07098
:102A700041E80002002AF5D1206850E8020F2168E1
:102A800020F0010041E80202002AF5D12020E06791
:102A9000C4F88000C4F8840018E000BF206850E843
:102AA000000F216820F4D07041E80002002AF5D11F
:102AB000206850E8020F216820F0010041E802027E
:102AC000002AF5D12020E067C4F88000002084F8B7
:102AD0007800032001B0BDE8F083002001B0BDE81C
:102AE000F083FEE700000000002848BF704700F0B8
:102AF0001F01012202FA01F14EF200124009CEF24A
:102B0000000242F8201070474EF60C50CEF2000042
:102B10000068C0F3022070474EF6145300F00F0215
:102B2000CEF20003B0F1FF3F1A4400F160434FEAD8
:102B30000110C8BF03F56442107070470000000028
:102B40004EF60C514FF6FF03CEF200010A681A4010
:102B500060F30A2242F0806040F0FD700860704728
:102B600070B50D4606460843194C09D12046102180
:102B70000022FDF725FF204620210022FDF720FF3F
:102B80001EB9012D01D1002216E0701EB0FA80F0AE
:102B900008BF002D4FEA50160AD12046102101220D
:102BA0000126FDF70DFF204620210022FDF708FF3A
:102BB000012D0CD15EB1012220461021FDF700FF4E
:102BC000204620210122BDE87040FDF7F9BE70BD0E
:102BD000001C0240BCB5094D04468DF807000DF1FC
:102BE0000701284601224FF47A73FFF765F9286838
:102BF000C1690906FCD52046BCBD00BFC800002045
:102C0000FDF7FEFEFFF79AFBFFF7B2F9FFF77CFA3C
:102C1000FFF798FAFFF70AFAFFF73EFA5248FEF775
:102C200087FE5248FEF72CFE514F524EA7F58065A5
:102C30001021284600220024B047284620210122E6
:102C4000B047384604210122B04740F6B830FDF7BE
:102C5000B7FD4A4F4AA59FED428B0C2C15D0391970
:102C6000454891ED000AB8EEC00B204488EE000BF9
:102C7000B7EEC00B80ED000AB7EEC00A284653EC51
:102C8000102B00F0D1F80434E7E700243FA50C2C0A
:102C900013D03948204490ED000A381990ED001AFD
:102CA000B8EEC11A284620EE010ABDEEC00A10EEA9
:102CB000101A00F0B9F80434E9E736A000F02EFD50
:102CC0002B48DFF8E890DFF8E8A00FF2E80B3BA60E
:102CD0003CA48046002540F6B830C9F80050CAF838
:102CE0000050FDF76DFD40460221FDF761FEDFF863
:102CF000888015B1032D03D11AE0584600F094F8EE
:102D0000204607EB8501022D08BF304691ED000AF1
:102D1000B8EEC00A98ED001A21EE000ABDEEC00A16
:102D200010EE101A00F080F808F104080135E0E711
:102D300001204FF4E1614FF47A72FFF723FA022089
:102D400040F27E414FF47A72FFF71CFA08480121E5
:102D50008046FDF72DFE4FF4FA60FDF731FDB9E72F
:102D60000000000000E06F407C00002024000020F4
:102D700000040240C1090008700000201800002073
:102D800025356C6620200D0A000000002564200D0A
:102D90000A00000057686974652042616C616E63C7
:102DA0006520446F6E65210D0000000014000020B6
:102DB00010000020524742203D2028002564290DA4
:102DC0000A00000025642C200000000070B50A2ACB
:102DD0000A4624D120B1B0F1FF3F06DD0A4609E0E2
:102DE00030200A4602F8010B19E02D230A4602F8AA
:102DF000013B4042002542F210730A247BB190FB54
:102E0000F3F6354307D006F1300506FB130002F850
:102E1000015B012500E00025B3FBF4F3EEE70020A1
:102E20001070084670BD00000FB4054B10B503A923
:102E3000044A029800F0DAF810BC5DF814FB0000B8
:102E4000D52B00080000002002E008C8121F08C1AE
:102E5000002AFAD170477047002001E001C1121F1B
:102E6000002AFBD1704700002DE9FF5F82B00021EE
:102E7000DDE90430020DDDF840B0034318D044F61C
:102E80001050A2F2FF3242431514119801281FD0AE
:102E9000A5EB0B00401C5FEA000A4FF000064E4F06
:102EA000DFF83891B046504615D5CAF1000413E05A
:102EB000119801244AA3012801D16FEA0B0102985D
:102EC000119AC0E90031C0E9024206B0BDE8F09FA6
:102ED000CBF10000DFE704460021404A491842EBED
:102EE0000450CDE9001012E0E00707D032463B461F
:102EF00040464946FDF7CEFA8046894632463B4673
:102F000010461946FDF7C6FA06460F466410002C17
:102F1000EAD1DDE90401DDE90023BAF1000F06DAA8
:102F2000FDF7B8FA42464B46FDF7B4FA05E0FDF767
:102F300023FB42464B46FDF71FFB04460E4600228C
:102F4000284BFDF7A1FB03D84FF0FF30014607E007
:102F50000022254B20463146FDF7F5F9FDF77BFBB6
:102F6000102409E0002C0ADB0A220023FDF760F997
:102F7000039B30321A55641E50EA0102F2D1641CE0
:102F8000039AC4F111031444119A012A03D00122B7
:102F900008430DD10AE0084304D000204FF0110B84
:102FA000119072E7A3EB0B056D1E0DE05B4504DD90
:102FB0004FF0000205F1010504E003DA4FF00002D2
:102FC000A5F10105002AECD002981199C0E902315F
:102FD000C0E9004579E70000000014400000F03F20
:102FE000300000000000F0430000E03F2DE9FF4FFB
:102FF00095B09B468946064600250FE2252877D1E5
:1030000000242746F84A0121059400E0044316F8FD
:10301000013F203B01FA03F01042F7D130782A2813
:1030200011D06FF02F033078A0F13002092A16D8A2
:10303000059A44F0020402EB820203EB42021044C0
:10304000761C0590EFE759F8042B0592002A03DA65
:10305000504244F40054059044F00204761C307849
:103060002E2816D116F8010F44F004042A280DD09A
:103070006FF02F023078A0F13003092B09D807EB4D
:10308000870302EB4303C718761CF3E759F8047B68
:10309000761C30786C280FD006DC4C2817D06828B6
:1030A0000DD06A2814D104E0742810D07A280FD1EA
:1030B0000DE044F400140AE044F4801401E044F408
:1030C00040147278824202D104F58014761C761C7A
:1030D000307866280BD013DC582877D009DC00281C
:1030E00075D04528F6D04628F4D047281AD19DE15E
:1030F00018E0632835D0642879D0652812D195E18D
:10310000702873D008DC6728F1D069286FD06E284A
:103110000DD06F2806D1B5E073282CD0752875D056
:10312000782874D05A46179990476D1C75E1C4F3FE
:103130000250022809D003280DD0D9F80010042825
:103140000DD00D6009F1040967E1D9F80010EA1704
:10315000C1E90052F6E7D9F800100D80F2E70D70D2
:10316000F0E719F8041B8DF8001000208DF801001D
:10317000EA46012003E059F804AB4FF0FF30610745
:103180004FF0000102D40DE008F101018846B94278
:103190000FDA8045F8DB1AF808100029F4D108E0AE
:1031A00008F1010188468142FADB1AF8081000296B
:1031B000F6D105985B46A0EB080721463846179ADA
:1031C00000F094FA284400EB080507E04DE029E1FF
:1031D0000DE01AF8010B5A4617999047B8F101080B
:1031E000F7D25B4621463846179A13E142E00A229D
:1031F0000092C4F302524FF0000A022A08D059F894
:1032000004CB032A4FEAEC710AD00DE029E02AE052
:1032100009F1070121F00702F2E802C1914609E035
:103220000FFA8CFC4FEAEC71042A03D14FFA8CFCA4
:103230004FEAEC71002907DA0A460021DCF1000CA4
:1032400061EB02012D2202E0220504D52B228DF82C
:103250000420012203E0E20701D02022F7E7904694
:1032600059E00A2102E010220DE010214FF0000A7F
:1032700000910BE010224FF0000A44F004040827EC
:10328000009203E008224FF0000A0092C4F30252B9
:10329000022A05D059F804CB0021032A08D009E0FE
:1032A00009F1070121F00702F2E802C1914605E0A9
:1032B0001FFA8CFC042A01D10CF0FF0C4FF000081F
:1032C000220728D5702806D0009B83F0100353EA0C
:1032D0000A0305D00EE040228DF80420012208E008
:1032E0005CEA010206D030228DF804208DF805003A
:1032F00002229046009B83F0080353EA0A030AD196
:103300005CEA010201D1620705D530228DF8042064
:103310004FF001087F1E582804D034A003900EA857
:1033200002900DE036A0F9E753466046009AFCF79C
:103330007FFF84460398825C0298401E02900270D0
:103340005CEA0100F0D1029806A9081A00F1200AEF
:10335000600702D524F4803400E00127574502DDE0
:10336000A7EB0A0000E0002000EB0A01009005989E
:103370004144401A0590E00306D45B462146179A63
:10338000059800F0B3F90544002706E001A85A4665
:10339000C05D179990476D1C7F1C4745F6DBE00325
:1033A0000CD55B462146179A059800F09FF9054415
:1033B00004E030205A46179990476D1C0099481E2A
:1033C00000900029F5DC08E0029802995A4600783E
:1033D000491C0291179990476D1CBAF10001AAF19E
:1033E000010AF1DC65E100000928010030313233C7
:1033F0003435363738396162636465660000000031
:10340000303132333435363738394142434445461A
:103410000000000000F058F90544761C30780028C0
:103420007FF4ECAD19B02846BDE8F08F620700D4F8
:10343000062709F1070222F0070CFCE80223E14607
:1034400003F000485FEA080C02D00FF2702C0DE088
:103450005FEA045C02D50FF2682C07E05FEAC47CE7
:1034600002D00FF2602C01E0AFF2700C4FF0FF3889
:1034700023F00043CDF850C065280CD006DC452869
:1034800009D046281DD047283DD13DE0662818D0F8
:1034900067287ED138E00021112F01DB112000E0E8
:1034A000781CCDE9000106A90EA8FFF7DDFCDDE9D7
:1034B0000F010E9A03910021009207F1010A049175
:1034C0004DE04FF000400097CDE9011006A90EA88D
:1034D000FFF7CAFCDDE90F0203920E9B119900224F
:1034E000DDF80CA00093049211B9791C00EB010ADD
:1034F000B7EB0A0004D4C0F1FF3007F1010A0490D1
:10350000AAEB0700019044E0012F00DA0127002117
:10351000112F01DD112000E03846CDE9000106A998
:103520000EA8FFF7A1FCDDE90F010E9A039100211F
:1035300004910092BA4621070CD40399514500DA50
:103540008A46BAF1010F05DD009AAAF10101515C2A
:10355000302908D0B84202DA10F1040F06DA01214E
:10356000CDE9011015E0AAF10101E9E7002805DC29
:10357000049901440491AAEB000102E0411C514569
:1035800000DD8A460499401A401C01904FF000402B
:103590000290200704D40198504501DBCDF8048047
:1035A00000208DF84F0002980DF14F07B0F1004F49
:1035B00025D02B200E9002984FF0020800280CDA3C
:1035C000404202902D200E9007E00A210298FCF75D
:1035D00085FE3031029007F8011DB8F10001A8F115
:1035E0000108F2DC02980028EFD1791E0E980870CD
:1035F000307800F0200040F0450007F8020D12A8D6
:10360000C01B00F107081498007800B1012000EBFE
:103610000A01019801EBE07105984144401A401EEF
:103620000590E00306D45B462146179A059800F002
:103630005DF805441498007818B15A4617999047D8
:103640006D1CE00324D55B462146179A059800F0CF
:103650004DF805441CE00498002807DBDDE9030170
:10366000884203DD0098405C179901E017993020EB
:103670005A469047049805F10105401C04900198B2
:10368000401E019004D12E205A46179990476D1C78
:10369000BAF10001AAF1010ADDDC05E017F8010B1F
:1036A0005A46179990476D1CB8F10001A8F101081E
:1036B000F4DC5B462146179A0598ABE62D00000026
:1036C0002B000000200000002DE9F04104460025F9
:1036D0001E461746880404D405E039462020B0472A
:1036E0006D1C641EF9D52846BDE8F0812DE9F04136
:1036F000044600251E469046C80301D5302700E049
:103700002027880404D505E041463846B0476D1CA3
:10371000641EF9D52846BDE8F081000010B50446C6
:1037200001E0FFF757FA14F8010B04490028F8D11B
:10373000BDE810400A20FFF74DBA0000000000204D
:103740000000000000000000010203040607080951
:103750000000000001020304783700080000002088
:1037600010000000482E00088837000810000020D4
:10377000D0050000582E0008000000000024F400CE
:08378000010000001000000030
:04000005080001F9F5
:00000001FF
